{
  "transactions": [
    {
      "hash": "0x0131db3acb7e0af99e87b40b19e5f0b17abc2bf9c1cd88fb0a72e4179faa8710",
      "transactionType": "CALL",
      "contractName": null,
      "contractAddress": "0x25dd79a9d1d31b5ae0aabcfe4fe2a2cf1ce8b43d",
      "function": "deposit()",
      "arguments": [],
      "transaction": {
        "from": "0xeba5864d192954d02fb0da889bd1bd60493d83f6",
        "to": "0x25dd79a9d1d31b5ae0aabcfe4fe2a2cf1ce8b43d",
        "gas": "0xbb86",
        "value": "0x4563918244f40000",
        "input": "0xd0e30db0",
        "nonce": "0x11f",
        "chainId": "0x4ec4"
      },
      "additionalContracts": [],
      "isFixedGasLimit": false
    },
    {
      "hash": "0x0a239dff431921e43eab58600390590a0a077da60280c0385c98013d1a731cf5",
      "transactionType": "CALL",
      "contractName": null,
      "contractAddress": "0x25dd79a9d1d31b5ae0aabcfe4fe2a2cf1ce8b43d",
      "function": "transfer(address,uint256)",
      "arguments": [
        "0x0F549aFb5743E16Fe09acC77a63617cA8Dd0696b",
        "0"
      ],
      "transaction": {
        "from": "0xeba5864d192954d02fb0da889bd1bd60493d83f6",
        "to": "0x25dd79a9d1d31b5ae0aabcfe4fe2a2cf1ce8b43d",
        "gas": "0x9a99",
        "value": "0x0",
        "input": "0xa9059cbb0000000000000000000000000f549afb5743e16fe09acc77a63617ca8dd0696b0000000000000000000000000000000000000000000000000000000000000000",
        "nonce": "0x120",
        "chainId": "0x4ec4"
      },
      "additionalContracts": [],
      "isFixedGasLimit": false
    }
  ],
  "receipts": [
    {
      "status": "0x1",
      "cumulativeGasUsed": "0x87c4",
      "logs": [
        {
          "address": "0x25dd79a9d1d31b5ae0aabcfe4fe2a2cf1ce8b43d",
          "topics": [
            "0xddf252ad1be2c89b69c2b068fc378daa952ba7f163c4a11628f55a4df523b3ef",
            "0x0000000000000000000000000000000000000000000000000000000000000000",
            "0x000000000000000000000000eba5864d192954d02fb0da889bd1bd60493d83f6"
          ],
          "data": "0x0000000000000000000000000000000000000000000000004563918244f40000",
          "blockHash": "0xd2e7c473e26e36d8017c75d1f0e165d316b17870426b36ee06f9d318a9c6176f",
          "blockNumber": "0x13c61b3",
          "transactionHash": "0x0131db3acb7e0af99e87b40b19e5f0b17abc2bf9c1cd88fb0a72e4179faa8710",
          "transactionIndex": "0x0",
          "logIndex": "0x0",
          "removed": false
        },
        {
          "address": "0x25dd79a9d1d31b5ae0aabcfe4fe2a2cf1ce8b43d",
          "topics": [
            "0xe1fffcc4923d04b559f4d29a8bfc6cda04eb5b0d3c460751c2402c5c5cc9109c",
            "0x000000000000000000000000eba5864d192954d02fb0da889bd1bd60493d83f6"
          ],
          "data": "0x0000000000000000000000000000000000000000000000004563918244f40000",
          "blockHash": "0xd2e7c473e26e36d8017c75d1f0e165d316b17870426b36ee06f9d318a9c6176f",
          "blockNumber": "0x13c61b3",
          "transactionHash": "0x0131db3acb7e0af99e87b40b19e5f0b17abc2bf9c1cd88fb0a72e4179faa8710",
          "transactionIndex": "0x0",
          "logIndex": "0x1",
          "removed": false
        }
      ],
      "logsBloom": "0x00000000000000000000000000000000000000000000000000000000000000000000000000000000000000000000000000000000000000000000000000000000000000000000000000000008000000000000000200000000000000008000000000000000020000000000000000000800000000000000000000000010000000000200000040000000000000000000000000000001000000000000000000000000000000000000000000000000000000000000000000000000000000000000000000000002000000000000000000000000000001000000100000000000000020040000000000000000000000000000000000000000000000400000000000000000",
      "type": "0x2",
      "transactionHash": "0x0131db3acb7e0af99e87b40b19e5f0b17abc2bf9c1cd88fb0a72e4179faa8710",
      "transactionIndex": "0x0",
      "blockHash": "0xd2e7c473e26e36d8017c75d1f0e165d316b17870426b36ee06f9d318a9c6176f",
      "blockNumber": "0x13c61b3",
      "gasUsed": "0x87c4",
      "effectiveGasPrice": "0x0",
      "from": "0xeba5864d192954d02fb0da889bd1bd60493d83f6",
      "to": "0x25dd79a9d1d31b5ae0aabcfe4fe2a2cf1ce8b43d",
      "contractAddress": null
    },
    {
      "status": "0x1",
      "cumulativeGasUsed": "0x6fee",
      "logs": [
        {
          "address": "0x25dd79a9d1d31b5ae0aabcfe4fe2a2cf1ce8b43d",
          "topics": [
            "0xddf252ad1be2c89b69c2b068fc378daa952ba7f163c4a11628f55a4df523b3ef",
            "0x000000000000000000000000eba5864d192954d02fb0da889bd1bd60493d83f6",
            "0x0000000000000000000000000f549afb5743e16fe09acc77a63617ca8dd0696b"
          ],
          "data": "0x0000000000000000000000000000000000000000000000000000000000000000",
          "blockHash": "0xaa8d37b73b6833bbdebfb077bd8201a9c1a4f19fa8076d04c62e796a963e60f6",
          "blockNumber": "0x13c61b4",
          "transactionHash": "0x0a239dff431921e43eab58600390590a0a077da60280c0385c98013d1a731cf5",
          "transactionIndex": "0x0",
          "logIndex": "0x0",
          "removed": false
        }
      ],
      "logsBloom": "0x00000000000000000000080000000000000000000000000000000000000000000000000000000000000000000000000000000000000000000000000000000000000000000000000000000008000000000000000200000000000000000004000000000000000000000000000000000000000000000000000000000010000000000200000040040000000000000000000000000000000000000000000000000000000000000000000000000000000000000000000000000000000000000000000000000002000000000000000000000000000001000000100000000000000000040000000000000000000000000000000000000000000000000000000000000000",
      "type": "0x2",
      "transactionHash": "0x0a239dff431921e43eab58600390590a0a077da60280c0385c98013d1a731cf5",
      "transactionIndex": "0x0",
      "blockHash": "0xaa8d37b73b6833bbdebfb077bd8201a9c1a4f19fa8076d04c62e796a963e60f6",
      "blockNumber": "0x13c61b4",
      "gasUsed": "0x6fee",
      "effectiveGasPrice": "0x0",
      "from": "0xeba5864d192954d02fb0da889bd1bd60493d83f6",
      "to": "0x25dd79a9d1d31b5ae0aabcfe4fe2a2cf1ce8b43d",
      "contractAddress": null
    }
  ],
  "libraries": [],
  "pending": [],
  "returns": {},
  "timestamp": 1727893893,
  "chain": 20164,
  "commit": "a023a50"
}