{
  "transactions": [
    {
      "hash": "0x4f017ebb1a18f5c48270582b4dec63ee0bf3291ca89f62b61bd27d0da8d49615",
      "transactionType": "CALL",
      "contractName": null,
      "contractAddress": "0x25dd79a9d1d31b5ae0aabcfe4fe2a2cf1ce8b43d",
      "function": "transfer(address,uint256)",
      "arguments": [
        "0x0F549aFb5743E16Fe09acC77a63617cA8Dd0696b",
        "15000000000000000000"
      ],
      "transaction": {
        "from": "0xeba5864d192954d02fb0da889bd1bd60493d83f6",
        "to": "0x25dd79a9d1d31b5ae0aabcfe4fe2a2cf1ce8b43d",
        "gas": "0x10a5e",
        "value": "0x0",
        "input": "0xa9059cbb0000000000000000000000000f549afb5743e16fe09acc77a63617ca8dd0696b000000000000000000000000000000000000000000000000d02ab486cedc0000",
        "nonce": "0x123",
        "chainId": "0x4ec4"
      },
      "additionalContracts": [],
      "isFixedGasLimit": false
    }
  ],
  "receipts": [
    {
      "status": "0x1",
      "cumulativeGasUsed": "0xb622",
      "logs": [
        {
          "address": "0x25dd79a9d1d31b5ae0aabcfe4fe2a2cf1ce8b43d",
          "topics": [
            "0xddf252ad1be2c89b69c2b068fc378daa952ba7f163c4a11628f55a4df523b3ef",
            "0x000000000000000000000000eba5864d192954d02fb0da889bd1bd60493d83f6",
            "0x0000000000000000000000000f549afb5743e16fe09acc77a63617ca8dd0696b"
          ],
          "data": "0x000000000000000000000000000000000000000000000000d02ab486cedc0000",
          "blockHash": "0xaaac18936e7831bbfcf903e5d28e5dd5ac7f0788fb3021b1bb0fa21861799a27",
          "blockNumber": "0x13c61b7",
          "transactionHash": "0x4f017ebb1a18f5c48270582b4dec63ee0bf3291ca89f62b61bd27d0da8d49615",
          "transactionIndex": "0x0",
          "logIndex": "0x0",
          "removed": false
        }
      ],
      "logsBloom": "0x00000000000000000000080000000000000000000000000000000000000000000000000000000000000000000000000000000000000000000000000000000000000000000000000000000008000000000000000200000000000000000004000000000000000000000000000000000000000000000000000000000010000000000200000040040000000000000000000000000000000000000000000000000000000000000000000000000000000000000000000000000000000000000000000000000002000000000000000000000000000001000000100000000000000000040000000000000000000000000000000000000000000000000000000000000000",
      "type": "0x2",
      "transactionHash": "0x4f017ebb1a18f5c48270582b4dec63ee0bf3291ca89f62b61bd27d0da8d49615",
      "transactionIndex": "0x0",
      "blockHash": "0xaaac18936e7831bbfcf903e5d28e5dd5ac7f0788fb3021b1bb0fa21861799a27",
      "blockNumber": "0x13c61b7",
      "gasUsed": "0xb622",
      "effectiveGasPrice": "0x0",
      "from": "0xeba5864d192954d02fb0da889bd1bd60493d83f6",
      "to": "0x25dd79a9d1d31b5ae0aabcfe4fe2a2cf1ce8b43d",
      "contractAddress": null
    }
  ],
  "libraries": [],
  "pending": [],
  "returns": {},
  "timestamp": 1727894042,
  "chain": 20164,
  "commit": "a023a50"
}