{
  "transactions": [
    {
      "hash": "0xf76ba658090fbc727391cb75ec451aa9cd0edca290d4792a493cb1902e1a2f76",
      "transactionType": "CALL",
      "contractName": null,
      "contractAddress": "0x25dd79a9d1d31b5ae0aabcfe4fe2a2cf1ce8b43d",
      "function": "deposit()",
      "arguments": [],
      "transaction": {
        "from": "0xeba5864d192954d02fb0da889bd1bd60493d83f6",
        "to": "0x25dd79a9d1d31b5ae0aabcfe4fe2a2cf1ce8b43d",
        "gas": "0x117ca",
        "value": "0x4563918244f40000",
        "input": "0xd0e30db0",
        "nonce": "0x11d",
        "chainId": "0x4ec4"
      },
      "additionalContracts": [],
      "isFixedGasLimit": false
    },
    {
      "hash": "0x42f193f5b70cb0634c50f44e6ada548b7511e6d51ec0a5ad40e532c4b3ab5f5f",
      "transactionType": "CALL",
      "contractName": null,
      "contractAddress": "0x25dd79a9d1d31b5ae0aabcfe4fe2a2cf1ce8b43d",
      "function": "transfer(address,uint256)",
      "arguments": [
        "0x0F549aFb5743E16Fe09acC77a63617cA8Dd0696b",
        "0"
      ],
      "transaction": {
        "from": "0xeba5864d192954d02fb0da889bd1bd60493d83f6",
        "to": "0x25dd79a9d1d31b5ae0aabcfe4fe2a2cf1ce8b43d",
        "gas": "0x9a99",
        "value": "0x0",
        "input": "0xa9059cbb0000000000000000000000000f549afb5743e16fe09acc77a63617ca8dd0696b0000000000000000000000000000000000000000000000000000000000000000",
        "nonce": "0x11e",
        "chainId": "0x4ec4"
      },
      "additionalContracts": [],
      "isFixedGasLimit": false
    }
  ],
  "receipts": [
    {
      "status": "0x1",
      "cumulativeGasUsed": "0xca90",
      "logs": [
        {
          "address": "0x25dd79a9d1d31b5ae0aabcfe4fe2a2cf1ce8b43d",
          "topics": [
            "0xddf252ad1be2c89b69c2b068fc378daa952ba7f163c4a11628f55a4df523b3ef",
            "0x0000000000000000000000000000000000000000000000000000000000000000",
            "0x000000000000000000000000eba5864d192954d02fb0da889bd1bd60493d83f6"
          ],
          "data": "0x0000000000000000000000000000000000000000000000004563918244f40000",
          "blockHash": "0x07e795c1512dbc8e5cd6a7544393485ac6f4910bef26a3a5795c6d37e51c41c9",
          "blockNumber": "0x13c61b1",
          "transactionHash": "0xf76ba658090fbc727391cb75ec451aa9cd0edca290d4792a493cb1902e1a2f76",
          "transactionIndex": "0x0",
          "logIndex": "0x0",
          "removed": false
        },
        {
          "address": "0x25dd79a9d1d31b5ae0aabcfe4fe2a2cf1ce8b43d",
          "topics": [
            "0xe1fffcc4923d04b559f4d29a8bfc6cda04eb5b0d3c460751c2402c5c5cc9109c",
            "0x000000000000000000000000eba5864d192954d02fb0da889bd1bd60493d83f6"
          ],
          "data": "0x0000000000000000000000000000000000000000000000004563918244f40000",
          "blockHash": "0x07e795c1512dbc8e5cd6a7544393485ac6f4910bef26a3a5795c6d37e51c41c9",
          "blockNumber": "0x13c61b1",
          "transactionHash": "0xf76ba658090fbc727391cb75ec451aa9cd0edca290d4792a493cb1902e1a2f76",
          "transactionIndex": "0x0",
          "logIndex": "0x1",
          "removed": false
        }
      ],
      "logsBloom": "0x00000000000000000000000000000000000000000000000000000000000000000000000000000000000000000000000000000000000000000000000000000000000000000000000000000008000000000000000200000000000000008000000000000000020000000000000000000800000000000000000000000010000000000200000040000000000000000000000000000001000000000000000000000000000000000000000000000000000000000000000000000000000000000000000000000002000000000000000000000000000001000000100000000000000020040000000000000000000000000000000000000000000000400000000000000000",
      "type": "0x2",
      "transactionHash": "0xf76ba658090fbc727391cb75ec451aa9cd0edca290d4792a493cb1902e1a2f76",
      "transactionIndex": "0x0",
      "blockHash": "0x07e795c1512dbc8e5cd6a7544393485ac6f4910bef26a3a5795c6d37e51c41c9",
      "blockNumber": "0x13c61b1",
      "gasUsed": "0xca90",
      "effectiveGasPrice": "0x0",
      "from": "0xeba5864d192954d02fb0da889bd1bd60493d83f6",
      "to": "0x25dd79a9d1d31b5ae0aabcfe4fe2a2cf1ce8b43d",
      "contractAddress": null
    },
    {
      "status": "0x1",
      "cumulativeGasUsed": "0x6fee",
      "logs": [
        {
          "address": "0x25dd79a9d1d31b5ae0aabcfe4fe2a2cf1ce8b43d",
          "topics": [
            "0xddf252ad1be2c89b69c2b068fc378daa952ba7f163c4a11628f55a4df523b3ef",
            "0x000000000000000000000000eba5864d192954d02fb0da889bd1bd60493d83f6",
            "0x0000000000000000000000000f549afb5743e16fe09acc77a63617ca8dd0696b"
          ],
          "data": "0x0000000000000000000000000000000000000000000000000000000000000000",
          "blockHash": "0xdccb138666229cad9dff8437f304f970813c7455f1375f3a1d21702a05c798f3",
          "blockNumber": "0x13c61b2",
          "transactionHash": "0x42f193f5b70cb0634c50f44e6ada548b7511e6d51ec0a5ad40e532c4b3ab5f5f",
          "transactionIndex": "0x0",
          "logIndex": "0x0",
          "removed": false
        }
      ],
      "logsBloom": "0x00000000000000000000080000000000000000000000000000000000000000000000000000000000000000000000000000000000000000000000000000000000000000000000000000000008000000000000000200000000000000000004000000000000000000000000000000000000000000000000000000000010000000000200000040040000000000000000000000000000000000000000000000000000000000000000000000000000000000000000000000000000000000000000000000000002000000000000000000000000000001000000100000000000000000040000000000000000000000000000000000000000000000000000000000000000",
      "type": "0x2",
      "transactionHash": "0x42f193f5b70cb0634c50f44e6ada548b7511e6d51ec0a5ad40e532c4b3ab5f5f",
      "transactionIndex": "0x0",
      "blockHash": "0xdccb138666229cad9dff8437f304f970813c7455f1375f3a1d21702a05c798f3",
      "blockNumber": "0x13c61b2",
      "gasUsed": "0x6fee",
      "effectiveGasPrice": "0x0",
      "from": "0xeba5864d192954d02fb0da889bd1bd60493d83f6",
      "to": "0x25dd79a9d1d31b5ae0aabcfe4fe2a2cf1ce8b43d",
      "contractAddress": null
    }
  ],
  "libraries": [],
  "pending": [],
  "returns": {},
  "timestamp": 1727893838,
  "chain": 20164,
  "commit": "a023a50"
}