{
  "transactions": [
    {
      "hash": "0x9390bece30c021ae0eb1f042b2d98f6c5831700451819e58260a8a7ec1c1b234",
      "transactionType": "CALL",
      "contractName": "BorrowerOperations",
      "contractAddress": "0x33fb0575d7f9455c720ac17a227cec85de7f7bed",
      "function": "registerBatchManager(uint128,uint128,uint128,uint128,uint128)",
      "arguments": [
        "5000000000000000",
        "1000000000000000000",
        "25000000000000000",
        "1000000000000000",
        "1"
      ],
      "transaction": {
        "from": "0xeba5864d192954d02fb0da889bd1bd60493d83f6",
        "to": "0x33fb0575d7f9455c720ac17a227cec85de7f7bed",
        "gas": "0x40d0a",
        "value": "0x0",
        "input": "0xbcb266c00000000000000000000000000000000000000000000000000011c37937e080000000000000000000000000000000000000000000000000000de0b6b3a76400000000000000000000000000000000000000000000000000000058d15e1762800000000000000000000000000000000000000000000000000000038d7ea4c680000000000000000000000000000000000000000000000000000000000000000001",
        "nonce": "0x15e",
        "chainId": "0xaa36a7"
      },
      "additionalContracts": [],
      "isFixedGasLimit": false
    },
    {
      "hash": "0x89a04113103efb4147c852694e415692d10584a0a4e01a0ff1c9b26b6e5c1eaa",
      "transactionType": "CALL",
      "contractName": null,
      "contractAddress": "0x3b8b6e96e57f0d1cd366aacf4ccc68413af308d0",
      "function": "approve(address,uint256)",
      "arguments": [
        "0x33fB0575d7F9455c720ac17A227cec85de7f7Bed",
        "20000000000000000000"
      ],
      "transaction": {
        "from": "0xeba5864d192954d02fb0da889bd1bd60493d83f6",
        "to": "0x3b8b6e96e57f0d1cd366aacf4ccc68413af308d0",
        "gas": "0xf9a9",
        "value": "0x0",
        "input": "0x095ea7b300000000000000000000000033fb0575d7f9455c720ac17a227cec85de7f7bed000000000000000000000000000000000000000000000001158e460913d00000",
        "nonce": "0x15f",
        "chainId": "0xaa36a7"
      },
      "additionalContracts": [],
      "isFixedGasLimit": false
    },
    {
      "hash": "0x47025cb2e10fd9b425dbc18294f616e570f02cdeb8d96b6cd465f97dd1683106",
      "transactionType": "CALL",
      "contractName": "WETHTester",
      "contractAddress": "0xc48a5096cca716c250359840f487f7722639b50c",
      "function": "approve(address,uint256)",
      "arguments": [
        "0x33fB0575d7F9455c720ac17A227cec85de7f7Bed",
        "37500000000000000"
      ],
      "transaction": {
        "from": "0xeba5864d192954d02fb0da889bd1bd60493d83f6",
        "to": "0xc48a5096cca716c250359840f487f7722639b50c",
        "gas": "0xf9b8",
        "value": "0x0",
        "input": "0x095ea7b300000000000000000000000033fb0575d7f9455c720ac17a227cec85de7f7bed00000000000000000000000000000000000000000000000000853a0d2313c000",
        "nonce": "0x160",
        "chainId": "0xaa36a7"
      },
      "additionalContracts": [],
      "isFixedGasLimit": false
    },
    {
      "hash": "0xdcf4521ac95e2efb28616cb1b050256f1ffa0f49dfaef7d8564d1697e97ae9fd",
      "transactionType": "CALL",
      "contractName": "BorrowerOperations",
      "contractAddress": "0x33fb0575d7f9455c720ac17a227cec85de7f7bed",
      "function": "openTrove(address,uint256,uint256,uint256,uint256,uint256,uint256,uint256,address,address,address)",
      "arguments": [
        "0xeba5864d192954D02FB0dA889bd1BD60493d83F6",
        "0",
        "20000000000000000000",
        "2000000000000000000000",
        "0",
        "0",
        "20000000000000000",
        "115792089237316195423570985008687907853269984665640564039457584007913129639935",
        "0x0000000000000000000000000000000000000000",
        "0x0000000000000000000000000000000000000000",
        "0x0000000000000000000000000000000000000000"
      ],
      "transaction": {
        "from": "0xeba5864d192954d02fb0da889bd1bd60493d83f6",
        "to": "0x33fb0575d7f9455c720ac17a227cec85de7f7bed",
        "gas": "0xf1b23",
        "value": "0x0",
        "input": "0x9cb90ba6000000000000000000000000eba5864d192954d02fb0da889bd1bd60493d83f60000000000000000000000000000000000000000000000000000000000000000000000000000000000000000000000000000000000000001158e460913d0000000000000000000000000000000000000000000000000006c6b935b8bbd4000000000000000000000000000000000000000000000000000000000000000000000000000000000000000000000000000000000000000000000000000000000000000000000000000000000000000000000000000000000000000470de4df820000ffffffffffffffffffffffffffffffffffffffffffffffffffffffffffffffff000000000000000000000000000000000000000000000000000000000000000000000000000000000000000000000000000000000000000000000000000000000000000000000000000000000000000000000000000000000000000000000000",
        "nonce": "0x161",
        "chainId": "0xaa36a7"
      },
      "additionalContracts": [],
      "isFixedGasLimit": false
    }
  ],
  "receipts": [
    {
      "status": "0x1",
      "cumulativeGasUsed": "0x7efa6b",
      "logs": [
        {
          "address": "0xb29f3dc11fe407c904c6fd8924f43ffe4620a3e2",
          "topics": [
            "0xecf6daab6f1facdfdd8dfe32b525744d8a7a940824dd52e2b53c24028ee5faa0",
            "0x000000000000000000000000eba5864d192954d02fb0da889bd1bd60493d83f6"
          ],
          "data": "0x0000000000000000000000000000000000000000000000000000000000000000000000000000000000000000000000000000000000000000000000000000000000000000000000000000000000000000000000000000000000000000000000000000000000000000000000000000000000000000000000000058d15e1762800000000000000000000000000000000000000000000000000000038d7ea4c6800000000000000000000000000000000000000000000000000000000000000000000000000000000000000000000000000000000000000000000000000000000000",
          "blockHash": "0xd4bedb125dcc056d1f72cd71dd720f21efe90b0e0902ccac3114d4008179cf18",
          "blockNumber": "0x66eead",
          "transactionHash": "0x9390bece30c021ae0eb1f042b2d98f6c5831700451819e58260a8a7ec1c1b234",
          "transactionIndex": "0x2f",
          "logIndex": "0x3f",
          "removed": false
        }
      ],
      "logsBloom": "0x00000000000000000000000000000000000000000000000000000000000000000000000000000000000000000000000000000000000000000000000000000000000000100000000000000000000000000000000000000000000000000000000000000000000000000010000000000000000000000000000000000000000000000200000000000000000000000000000000080000000000000000000000000000000000000000000000000000000000000000000000000000000000400000000000000000000000000000000000000000000001000000000000000000000000040000000000000000000000000200000002000000000000000000000000000000",
      "type": "0x2",
      "transactionHash": "0x9390bece30c021ae0eb1f042b2d98f6c5831700451819e58260a8a7ec1c1b234",
      "transactionIndex": "0x2f",
      "blockHash": "0xd4bedb125dcc056d1f72cd71dd720f21efe90b0e0902ccac3114d4008179cf18",
      "blockNumber": "0x66eead",
      "gasUsed": "0x2eecd",
      "effectiveGasPrice": "0x5fdb6af56",
      "from": "0xeba5864d192954d02fb0da889bd1bd60493d83f6",
      "to": "0x33fb0575d7f9455c720ac17a227cec85de7f7bed",
      "contractAddress": null
    },
    {
      "status": "0x1",
      "cumulativeGasUsed": "0x968b00",
      "logs": [
        {
          "address": "0x3b8b6e96e57f0d1cd366aacf4ccc68413af308d0",
          "topics": [
            "0x8c5be1e5ebec7d5bd14f71427d1e84f3dd0314c0f7b2291e5b200ac8c7c3b925",
            "0x000000000000000000000000eba5864d192954d02fb0da889bd1bd60493d83f6",
            "0x00000000000000000000000033fb0575d7f9455c720ac17a227cec85de7f7bed"
          ],
          "data": "0x000000000000000000000000000000000000000000000001158e460913d00000",
          "blockHash": "0x63c096c26b9bbb7f774819b2d47320378ff4e975d5edd93122c993847ecba6bb",
          "blockNumber": "0x66eeae",
          "transactionHash": "0x89a04113103efb4147c852694e415692d10584a0a4e01a0ff1c9b26b6e5c1eaa",
          "transactionIndex": "0x4b",
          "logIndex": "0x9e",
          "removed": false
        }
      ],
      "logsBloom": "0x00001000000000000000100000000000000000000000000000000000000000000000000000000000000000000000200000000000000000000000000000200000000000000000008000000000000000000000000000000000000000000000000000000000000000000000000000000000000000000000000000000000000000000200000000000000000000000020000000000000000000000000004000000000020000000000000000000000000000000000000000000000000000000000000000000000000000000000000000000000000001000000000000000000000000040010000000000000000000000000000000000000000000000000000000000000",
      "type": "0x2",
      "transactionHash": "0x89a04113103efb4147c852694e415692d10584a0a4e01a0ff1c9b26b6e5c1eaa",
      "transactionIndex": "0x4b",
      "blockHash": "0x63c096c26b9bbb7f774819b2d47320378ff4e975d5edd93122c993847ecba6bb",
      "blockNumber": "0x66eeae",
      "gasUsed": "0xb4c0",
      "effectiveGasPrice": "0x5f67c436f",
      "from": "0xeba5864d192954d02fb0da889bd1bd60493d83f6",
      "to": "0x3b8b6e96e57f0d1cd366aacf4ccc68413af308d0",
      "contractAddress": null
    },
    {
      "status": "0x1",
      "cumulativeGasUsed": "0x8a2428",
      "logs": [
        {
          "address": "0xc48a5096cca716c250359840f487f7722639b50c",
          "topics": [
            "0x8c5be1e5ebec7d5bd14f71427d1e84f3dd0314c0f7b2291e5b200ac8c7c3b925",
            "0x000000000000000000000000eba5864d192954d02fb0da889bd1bd60493d83f6",
            "0x00000000000000000000000033fb0575d7f9455c720ac17a227cec85de7f7bed"
          ],
          "data": "0x00000000000000000000000000000000000000000000000000853a0d2313c000",
          "blockHash": "0xc0977c28b2965498b5d861fb369b9b202614e98a0be1b9eb022aea96166263ec",
          "blockNumber": "0x66eeaf",
          "transactionHash": "0x47025cb2e10fd9b425dbc18294f616e570f02cdeb8d96b6cd465f97dd1683106",
          "transactionIndex": "0x36",
          "logIndex": "0x4a",
          "removed": false
        }
      ],
      "logsBloom": "0x00001000000010000000000000000000000000000000000000000000000000000000000000000000000000000000200000000000000000000000000000200000000000000000000000000000000000000000000000000000000000000000000000000000000000000000000000000000000000000000000000000000000000000200000000000000000000000020000000000000000000000000000000000000020000000000000000000000000000000000000000000000000000000000000000000000000000000000000000000000000001000000000000000000000000040010000200000000000000000000000001000000000000000000000000000000",
      "type": "0x2",
      "transactionHash": "0x47025cb2e10fd9b425dbc18294f616e570f02cdeb8d96b6cd465f97dd1683106",
      "transactionIndex": "0x36",
      "blockHash": "0xc0977c28b2965498b5d861fb369b9b202614e98a0be1b9eb022aea96166263ec",
      "blockNumber": "0x66eeaf",
      "gasUsed": "0xb4cc",
      "effectiveGasPrice": "0x5e8178143",
      "from": "0xeba5864d192954d02fb0da889bd1bd60493d83f6",
      "to": "0xc48a5096cca716c250359840f487f7722639b50c",
      "contractAddress": null
    },
    {
      "status": "0x1",
      "cumulativeGasUsed": "0x17e0aa9",
      "logs": [
        {
          "address": "0x3ce14ddbf22bcc807023c4903664c486d87de9fb",
          "topics": [
            "0x4d29de21de555af78a62fc82dd4bc05e9ae5b0660a37f04729527e0f22780cd3"
          ],
          "data": "0x00000000000000000000000000000000000000000000000ad78ebc5ac6200000",
          "blockHash": "0x5a55a37a9c1a62ccc0a324e767939874ed238749c4e760264c7d6ae8a65ed281",
          "blockNumber": "0x66eeb0",
          "transactionHash": "0xdcf4521ac95e2efb28616cb1b050256f1ffa0f49dfaef7d8564d1697e97ae9fd",
          "transactionIndex": "0x48",
          "logIndex": "0x90",
          "removed": false
        },
        {
          "address": "0xf4d3f52c75e6cb751fbbe7fde5d5f4d9ac97e2fe",
          "topics": [
            "0xddf252ad1be2c89b69c2b068fc378daa952ba7f163c4a11628f55a4df523b3ef",
            "0x0000000000000000000000000000000000000000000000000000000000000000",
            "0x000000000000000000000000261e01e5bac4bd7765ee1362aef4f13fd36ef5b7"
          ],
          "data": "0x00000000000000000000000000000000000000000000000002fb1a7a78f5eaf6",
          "blockHash": "0x5a55a37a9c1a62ccc0a324e767939874ed238749c4e760264c7d6ae8a65ed281",
          "blockNumber": "0x66eeb0",
          "transactionHash": "0xdcf4521ac95e2efb28616cb1b050256f1ffa0f49dfaef7d8564d1697e97ae9fd",
          "transactionIndex": "0x48",
          "logIndex": "0x91",
          "removed": false
        },
        {
          "address": "0xf4d3f52c75e6cb751fbbe7fde5d5f4d9ac97e2fe",
          "topics": [
            "0xddf252ad1be2c89b69c2b068fc378daa952ba7f163c4a11628f55a4df523b3ef",
            "0x0000000000000000000000000000000000000000000000000000000000000000",
            "0x00000000000000000000000041a41b05b5e25947ab47f45b0818067d53e3f610"
          ],
          "data": "0x00000000000000000000000000000000000000000000000007aa44165b9cee76",
          "blockHash": "0x5a55a37a9c1a62ccc0a324e767939874ed238749c4e760264c7d6ae8a65ed281",
          "blockNumber": "0x66eeb0",
          "transactionHash": "0xdcf4521ac95e2efb28616cb1b050256f1ffa0f49dfaef7d8564d1697e97ae9fd",
          "transactionIndex": "0x48",
          "logIndex": "0x92",
          "removed": false
        },
        {
          "address": "0x3b8b6e96e57f0d1cd366aacf4ccc68413af308d0",
          "topics": [
            "0x8c5be1e5ebec7d5bd14f71427d1e84f3dd0314c0f7b2291e5b200ac8c7c3b925",
            "0x000000000000000000000000eba5864d192954d02fb0da889bd1bd60493d83f6",
            "0x00000000000000000000000033fb0575d7f9455c720ac17a227cec85de7f7bed"
          ],
          "data": "0x0000000000000000000000000000000000000000000000000000000000000000",
          "blockHash": "0x5a55a37a9c1a62ccc0a324e767939874ed238749c4e760264c7d6ae8a65ed281",
          "blockNumber": "0x66eeb0",
          "transactionHash": "0xdcf4521ac95e2efb28616cb1b050256f1ffa0f49dfaef7d8564d1697e97ae9fd",
          "transactionIndex": "0x48",
          "logIndex": "0x93",
          "removed": false
        },
        {
          "address": "0x3b8b6e96e57f0d1cd366aacf4ccc68413af308d0",
          "topics": [
            "0xddf252ad1be2c89b69c2b068fc378daa952ba7f163c4a11628f55a4df523b3ef",
            "0x000000000000000000000000eba5864d192954d02fb0da889bd1bd60493d83f6",
            "0x000000000000000000000000b1c6aee6a8ae7d68448fb2b9bb77247951d10670"
          ],
          "data": "0x000000000000000000000000000000000000000000000001158e460913d00000",
          "blockHash": "0x5a55a37a9c1a62ccc0a324e767939874ed238749c4e760264c7d6ae8a65ed281",
          "blockNumber": "0x66eeb0",
          "transactionHash": "0xdcf4521ac95e2efb28616cb1b050256f1ffa0f49dfaef7d8564d1697e97ae9fd",
          "transactionIndex": "0x48",
          "logIndex": "0x94",
          "removed": false
        },
        {
          "address": "0xb1c6aee6a8ae7d68448fb2b9bb77247951d10670",
          "topics": [
            "0x9bbe217b4113a0fc957e51f8db99c9989f520e3c6bcca7a8e12c6316eaf995bf"
          ],
          "data": "0x000000000000000000000000000000000000000000000001158e460913d00000",
          "blockHash": "0x5a55a37a9c1a62ccc0a324e767939874ed238749c4e760264c7d6ae8a65ed281",
          "blockNumber": "0x66eeb0",
          "transactionHash": "0xdcf4521ac95e2efb28616cb1b050256f1ffa0f49dfaef7d8564d1697e97ae9fd",
          "transactionIndex": "0x48",
          "logIndex": "0x95",
          "removed": false
        },
        {
          "address": "0xf4d3f52c75e6cb751fbbe7fde5d5f4d9ac97e2fe",
          "topics": [
            "0xddf252ad1be2c89b69c2b068fc378daa952ba7f163c4a11628f55a4df523b3ef",
            "0x0000000000000000000000000000000000000000000000000000000000000000",
            "0x000000000000000000000000eba5864d192954d02fb0da889bd1bd60493d83f6"
          ],
          "data": "0x00000000000000000000000000000000000000000000006c6b935b8bbd400000",
          "blockHash": "0x5a55a37a9c1a62ccc0a324e767939874ed238749c4e760264c7d6ae8a65ed281",
          "blockNumber": "0x66eeb0",
          "transactionHash": "0xdcf4521ac95e2efb28616cb1b050256f1ffa0f49dfaef7d8564d1697e97ae9fd",
          "transactionIndex": "0x48",
          "logIndex": "0x96",
          "removed": false
        },
        {
          "address": "0xc48a5096cca716c250359840f487f7722639b50c",
          "topics": [
            "0x8c5be1e5ebec7d5bd14f71427d1e84f3dd0314c0f7b2291e5b200ac8c7c3b925",
            "0x000000000000000000000000eba5864d192954d02fb0da889bd1bd60493d83f6",
            "0x00000000000000000000000033fb0575d7f9455c720ac17a227cec85de7f7bed"
          ],
          "data": "0x0000000000000000000000000000000000000000000000000000000000000000",
          "blockHash": "0x5a55a37a9c1a62ccc0a324e767939874ed238749c4e760264c7d6ae8a65ed281",
          "blockNumber": "0x66eeb0",
          "transactionHash": "0xdcf4521ac95e2efb28616cb1b050256f1ffa0f49dfaef7d8564d1697e97ae9fd",
          "transactionIndex": "0x48",
          "logIndex": "0x97",
          "removed": false
        },
        {
          "address": "0xc48a5096cca716c250359840f487f7722639b50c",
          "topics": [
            "0xddf252ad1be2c89b69c2b068fc378daa952ba7f163c4a11628f55a4df523b3ef",
            "0x000000000000000000000000eba5864d192954d02fb0da889bd1bd60493d83f6",
            "0x0000000000000000000000000e2bf0d61f32f031a8adc43c6722d51dec3f6314"
          ],
          "data": "0x00000000000000000000000000000000000000000000000000853a0d2313c000",
          "blockHash": "0x5a55a37a9c1a62ccc0a324e767939874ed238749c4e760264c7d6ae8a65ed281",
          "blockNumber": "0x66eeb0",
          "transactionHash": "0xdcf4521ac95e2efb28616cb1b050256f1ffa0f49dfaef7d8564d1697e97ae9fd",
          "transactionIndex": "0x48",
          "logIndex": "0x98",
          "removed": false
        },
        {
          "address": "0x684a3e4cece9a2b3ca83e435bac9eba4d4435076",
          "topics": [
            "0xddf252ad1be2c89b69c2b068fc378daa952ba7f163c4a11628f55a4df523b3ef",
            "0x0000000000000000000000000000000000000000000000000000000000000000",
            "0x000000000000000000000000eba5864d192954d02fb0da889bd1bd60493d83f6",
            "0x33622e5c4a9b486a61dcadc09919fdc89a03e2ce0efe4aeea06c8013376319c5"
          ],
          "data": "0x",
          "blockHash": "0x5a55a37a9c1a62ccc0a324e767939874ed238749c4e760264c7d6ae8a65ed281",
          "blockNumber": "0x66eeb0",
          "transactionHash": "0xdcf4521ac95e2efb28616cb1b050256f1ffa0f49dfaef7d8564d1697e97ae9fd",
          "transactionIndex": "0x48",
          "logIndex": "0x99",
          "removed": false
        },
        {
          "address": "0xb29f3dc11fe407c904c6fd8924f43ffe4620a3e2",
          "topics": [
            "0x0fba2673863b12c7b8463f3fa2f9b0cb1d534c573cdec5b5d895ee00d6ce6f5e",
            "0x33622e5c4a9b486a61dcadc09919fdc89a03e2ce0efe4aeea06c8013376319c5"
          ],
          "data": "0x00000000000000000000000000000000000000000000006c7638ba1c91d2d96c000000000000000000000000000000000000000000000001158e460913d00000000000000000000000000000000000000000000000000001158e460913d0000000000000000000000000000000000000000000000000000000470de4df82000000000000000000000000000000000000000000000000000000000000000000000000000000000000000000000000000000000000000000000000000000000000",
          "blockHash": "0x5a55a37a9c1a62ccc0a324e767939874ed238749c4e760264c7d6ae8a65ed281",
          "blockNumber": "0x66eeb0",
          "transactionHash": "0xdcf4521ac95e2efb28616cb1b050256f1ffa0f49dfaef7d8564d1697e97ae9fd",
          "transactionIndex": "0x48",
          "logIndex": "0x9a",
          "removed": false
        },
        {
          "address": "0xb29f3dc11fe407c904c6fd8924f43ffe4620a3e2",
          "topics": [
            "0x962110f281c1213763cd97a546b337b3cbfd25a31ea9723e9d8b7376ba45da1a",
            "0x33622e5c4a9b486a61dcadc09919fdc89a03e2ce0efe4aeea06c8013376319c5"
          ],
          "data": "0x000000000000000000000000000000000000000000000000000000000000000000000000000000000000000000000000000000000000000000470de4df82000000000000000000000000000000000000000000000000000000000000000000000000000000000000000000000000000000000000000000000aa55e90d492d96c00000000000000000000000000000000000000000000006c6b935b8bbd4000000000000000000000000000000000000000000000000000000000000000000000000000000000000000000000000000000000000000000001158e460913d00000",
          "blockHash": "0x5a55a37a9c1a62ccc0a324e767939874ed238749c4e760264c7d6ae8a65ed281",
          "blockNumber": "0x66eeb0",
          "transactionHash": "0xdcf4521ac95e2efb28616cb1b050256f1ffa0f49dfaef7d8564d1697e97ae9fd",
          "transactionIndex": "0x48",
          "logIndex": "0x9b",
          "removed": false
        }
      ],
      "logsBloom": "0x0000102000001000000010000000000000000000400000000000001000200000000000100000000000000000000020000000004000000000000c000004200000000000100000008000000028100000000010000400000000000000800000000000000000020000800400010010000800000800000000208000000010008000000200000000000040000000080020000000000000000000080000004000000000020000000000000000080000000001000000000400008000000000400000004000000002010040000000000000000000400001100000000000000000000020040010000200000000000000000200000001000000080000100000000000000040",
      "type": "0x2",
      "transactionHash": "0xdcf4521ac95e2efb28616cb1b050256f1ffa0f49dfaef7d8564d1697e97ae9fd",
      "transactionIndex": "0x48",
      "blockHash": "0x5a55a37a9c1a62ccc0a324e767939874ed238749c4e760264c7d6ae8a65ed281",
      "blockNumber": "0x66eeb0",
      "gasUsed": "0xaefbe",
      "effectiveGasPrice": "0x5c63ee69a",
      "from": "0xeba5864d192954d02fb0da889bd1bd60493d83f6",
      "to": "0x33fb0575d7f9455c720ac17a227cec85de7f7bed",
      "contractAddress": null
    }
  ],
  "libraries": [],
  "pending": [],
  "returns": {},
  "timestamp": 1727104135,
  "chain": 11155111,
  "commit": "11dc5cf"
}