{
  "transactions": [
    {
      "hash": "0xc3b8ec851447fe558f3b7353ae4dbfc31bfdebde38e63592aa35bf4a17e3ac89",
      "transactionType": "CREATE",
      "contractName": null,
      "contractAddress": "0xed11a1c2ebc96b76ee42b28efef83eae9d6f3dfd",
      "function": null,
      "arguments": null,
      "transaction": {
        "from": "0xeba5864d192954d02fb0da889bd1bd60493d83f6",
        "gas": "0x43321",
        "value": "0x0",
        "input": "0x608060405234801561001057600080fd5b506102de806100206000396000f3fe608060405234801561001057600080fd5b50600436106100365760003560e01c8063339f897e1461003b5780635b60133714610050575b600080fd5b61004e61004936600461021d565b610063565b005b61004e61005e366004610249565b6100cd565b6040516323b872dd60e01b8152306004820152336024820152604481018290526001600160a01b038316906323b872dd90606401600060405180830381600087803b1580156100b157600080fd5b505af11580156100c5573d6000803e3d6000fd5b505050505050565b806001600160a01b031663fd2210316040518163ffffffff1660e01b8152600401600060405180830381600087803b15801561010857600080fd5b505af115801561011c573d6000803e3d6000fd5b50506040516370a0823160e01b81523060048201526001600160a01b038416925063a9059cbb9150339083906370a0823190602401602060405180830381865afa15801561016e573d6000803e3d6000fd5b505050506040513d601f19601f82011682018060405250810190610192919061026d565b6040516001600160e01b031960e085901b1681526001600160a01b03909216600483015260248201526044016020604051808303816000875af11580156101dd573d6000803e3d6000fd5b505050506040513d601f19601f820116820180604052508101906102019190610286565b5050565b6001600160a01b038116811461021a57600080fd5b50565b6000806040838503121561023057600080fd5b823561023b81610205565b946020939093013593505050565b60006020828403121561025b57600080fd5b813561026681610205565b9392505050565b60006020828403121561027f57600080fd5b5051919050565b60006020828403121561029857600080fd5b8151801515811461026657600080fdfea2646970667358221220eca82be0a807cf66a43072b82875d819c5e96b8f989005bd14b1e501bc93d71864736f6c63430008120033",
        "nonce": "0x14c",
        "chainId": "0xaa36a7"
      },
      "additionalContracts": [],
      "isFixedGasLimit": false
    },
    {
      "hash": "0x0a85b5e6d96f46151706fc8ef1e9b3256487dc9d13f52d7a18af28616648fc5c",
      "transactionType": "CREATE",
      "contractName": null,
      "contractAddress": "0x5b9e2da4bafab807b386c5c3df0ed05ce1c7d6e8",
      "function": null,
      "arguments": null,
      "transaction": {
        "from": "0xeba5864d192954d02fb0da889bd1bd60493d83f6",
        "gas": "0x13f7d",
        "value": "0x0",
        "input": "0x3d602d80600a3d3981f3363d3d373d3d3d363d73ed11a1c2ebc96b76ee42b28efef83eae9d6f3dfd5af43d82803e903d91602b57fd5bf3",
        "nonce": "0x14d",
        "chainId": "0xaa36a7"
      },
      "additionalContracts": [],
      "isFixedGasLimit": false
    },
    {
      "hash": "0xc1b3e28d7a50deac67be5c7effc513fb122849c4fabd909c2fa26dc145faebc9",
      "transactionType": "CALL",
      "contractName": null,
      "contractAddress": "0x5b9e2da4bafab807b386c5c3df0ed05ce1c7d6e8",
      "function": "tap(address)",
      "arguments": [
        "0xc48A5096cCA716C250359840F487f7722639B50c"
      ],
      "transaction": {
        "from": "0xeba5864d192954d02fb0da889bd1bd60493d83f6",
        "to": "0x5b9e2da4bafab807b386c5c3df0ed05ce1c7d6e8",
        "gas": "0x17e2a",
        "value": "0x0",
        "input": "0x5b601337000000000000000000000000c48a5096cca716c250359840f487f7722639b50c",
        "nonce": "0x14e",
        "chainId": "0xaa36a7"
      },
      "additionalContracts": [],
      "isFixedGasLimit": false
    },
    {
      "hash": "0x7f4b0eba860f199f351477b8e42440792408065171b3514234a9189a1be1f4de",
      "transactionType": "CALL",
      "contractName": "WETHTester",
      "contractAddress": "0xc48a5096cca716c250359840f487f7722639b50c",
      "function": "approve(address,uint256)",
      "arguments": [
        "0xC11602973aAe4805787F1CD496081CB5Cb32AaD1",
        "50037500000000000000"
      ],
      "transaction": {
        "from": "0xeba5864d192954d02fb0da889bd1bd60493d83f6",
        "to": "0xc48a5096cca716c250359840f487f7722639b50c",
        "gas": "0xf9da",
        "value": "0x0",
        "input": "0x095ea7b3000000000000000000000000c11602973aae4805787f1cd496081cb5cb32aad1000000000000000000000000000000000000000000000002b668e923d49bc000",
        "nonce": "0x14f",
        "chainId": "0xaa36a7"
      },
      "additionalContracts": [],
      "isFixedGasLimit": false
    },
    {
      "hash": "0xabe1e3da8824324f6703cf7212d1e2d2bb111a7425b8f71d9815708e83bea69f",
      "transactionType": "CALL",
      "contractName": "WETHTester",
      "contractAddress": "0xc48a5096cca716c250359840f487f7722639b50c",
      "function": "approve(address,uint256)",
      "arguments": [
        "0xC11602973aAe4805787F1CD496081CB5Cb32AaD1",
        "50037500000000000000"
      ],
      "transaction": {
        "from": "0xeba5864d192954d02fb0da889bd1bd60493d83f6",
        "to": "0xc48a5096cca716c250359840f487f7722639b50c",
        "gas": "0x8e7b",
        "value": "0x0",
        "input": "0x095ea7b3000000000000000000000000c11602973aae4805787f1cd496081cb5cb32aad1000000000000000000000000000000000000000000000002b668e923d49bc000",
        "nonce": "0x150",
        "chainId": "0xaa36a7"
      },
      "additionalContracts": [],
      "isFixedGasLimit": false
    },
    {
      "hash": "0xf5c7d7093a7b9bed2017ebd583f496f5539e8f058640545cb6085b39d645cff0",
      "transactionType": "CALL",
      "contractName": "BorrowerOperations",
      "contractAddress": "0xc11602973aae4805787f1cd496081cb5cb32aad1",
      "function": "openTrove(address,uint256,uint256,uint256,uint256,uint256,uint256,uint256,address,address,address)",
      "arguments": [
        "0x5b9e2da4baFAb807B386c5C3dF0ED05CE1C7D6E8",
        "0",
        "50000000000000000000",
        "2000000000000000000000",
        "56596090999234618830261303948234722284102573726011449733426525053493491917677",
        "0",
        "10000000000000000",
        "115792089237316195423570985008687907853269984665640564039457584007913129639935",
        "0x0000000000000000000000000000000000000000",
        "0x0000000000000000000000000000000000000000",
        "0x0000000000000000000000000000000000000000"
      ],
      "transaction": {
        "from": "0xeba5864d192954d02fb0da889bd1bd60493d83f6",
        "to": "0xc11602973aae4805787f1cd496081cb5cb32aad1",
        "gas": "0xbc06c",
        "value": "0x0",
        "input": "0x9cb90ba60000000000000000000000005b9e2da4bafab807b386c5c3df0ed05ce1c7d6e80000000000000000000000000000000000000000000000000000000000000000000000000000000000000000000000000000000000000002b5e3af16b188000000000000000000000000000000000000000000000000006c6b935b8bbd4000007d204098646b3045580fd124c6fd8ce7bf554df9ca8c125bfe02fd5aad31e36d0000000000000000000000000000000000000000000000000000000000000000000000000000000000000000000000000000000000000000002386f26fc10000ffffffffffffffffffffffffffffffffffffffffffffffffffffffffffffffff000000000000000000000000000000000000000000000000000000000000000000000000000000000000000000000000000000000000000000000000000000000000000000000000000000000000000000000000000000000000000000000000",
        "nonce": "0x151",
        "chainId": "0xaa36a7"
      },
      "additionalContracts": [],
      "isFixedGasLimit": false
    },
    {
      "hash": "0xce6b24a4b5d150a6fc2010fd9b5bf349e8f5f8d5a64f24b6ebe9b7baf4462180",
      "transactionType": "CALL",
      "contractName": null,
      "contractAddress": "0x5b9e2da4bafab807b386c5c3df0ed05ce1c7d6e8",
      "function": "sweepTrove(address,uint256)",
      "arguments": [
        "0x742e363ed1Cbe1dfbce40a81e2CA4a1AbbeA8524",
        "41140222631224883903522690406475356081322020172875599572147679120909667233543"
      ],
      "transaction": {
        "from": "0xeba5864d192954d02fb0da889bd1bd60493d83f6",
        "to": "0x5b9e2da4bafab807b386c5c3df0ed05ce1c7d6e8",
        "gas": "0xed71",
        "value": "0x0",
        "input": "0x339f897e000000000000000000000000742e363ed1cbe1dfbce40a81e2ca4a1abbea85245af48a743e6fb3215c14bf17843302b34be82cebfd94ac10c59d0f20bf2d6f07",
        "nonce": "0x152",
        "chainId": "0xaa36a7"
      },
      "additionalContracts": [],
      "isFixedGasLimit": false
    }
  ],
  "receipts": [
    {
      "status": "0x1",
      "cumulativeGasUsed": "0xcb8858",
      "logs": [],
      "logsBloom": "0x00000000000000000000000000000000000000000000000000000000000000000000000000000000000000000000000000000000000000000000000000000000000000000000000000000000000000000000000000000000000000000000000000000000000000000000000000000000000000000000000000000000000000000000000000000000000000000000000000000000000000000000000000000000000000000000000000000000000000000000000000000000000000000000000000000000000000000000000000000000000000000000000000000000000000000000000000000000000000000000000000000000000000000000000000000000",
      "type": "0x2",
      "transactionHash": "0xc3b8ec851447fe558f3b7353ae4dbfc31bfdebde38e63592aa35bf4a17e3ac89",
      "transactionIndex": "0x57",
      "blockHash": "0xfc334fcbfb9385c4f3a638c6d61263e9f1afefd26d2405888ebf94c9822656e4",
      "blockNumber": "0x66ebb9",
      "gasUsed": "0x33b06",
      "effectiveGasPrice": "0x8aa31b572",
      "from": "0xeba5864d192954d02fb0da889bd1bd60493d83f6",
      "to": null,
      "contractAddress": "0xed11a1c2ebc96b76ee42b28efef83eae9d6f3dfd"
    },
    {
      "status": "0x1",
      "cumulativeGasUsed": "0xb2edb2",
      "logs": [],
      "logsBloom": "0x00000000000000000000000000000000000000000000000000000000000000000000000000000000000000000000000000000000000000000000000000000000000000000000000000000000000000000000000000000000000000000000000000000000000000000000000000000000000000000000000000000000000000000000000000000000000000000000000000000000000000000000000000000000000000000000000000000000000000000000000000000000000000000000000000000000000000000000000000000000000000000000000000000000000000000000000000000000000000000000000000000000000000000000000000000000",
      "type": "0x2",
      "transactionHash": "0x0a85b5e6d96f46151706fc8ef1e9b3256487dc9d13f52d7a18af28616648fc5c",
      "transactionIndex": "0x62",
      "blockHash": "0xfe86fc94ded9fcaa0f2e3303f7a8ca7f3e950cecb738e2ff76746233f5540e04",
      "blockNumber": "0x66ebba",
      "gasUsed": "0xf5c3",
      "effectiveGasPrice": "0x8aaf85d8b",
      "from": "0xeba5864d192954d02fb0da889bd1bd60493d83f6",
      "to": null,
      "contractAddress": "0x5b9e2da4bafab807b386c5c3df0ed05ce1c7d6e8"
    },
    {
      "status": "0x1",
      "cumulativeGasUsed": "0x1008607",
      "logs": [
        {
          "address": "0xc48a5096cca716c250359840f487f7722639b50c",
          "topics": [
            "0xddf252ad1be2c89b69c2b068fc378daa952ba7f163c4a11628f55a4df523b3ef",
            "0x0000000000000000000000000000000000000000000000000000000000000000",
            "0x0000000000000000000000005b9e2da4bafab807b386c5c3df0ed05ce1c7d6e8"
          ],
          "data": "0x0000000000000000000000000000000000000000000000056bc75e2d63100000",
          "blockHash": "0xe0a80beaff6be3e601d17176afa6671d766e0247fd1af17a549134e57d6b8f9f",
          "blockNumber": "0x66ebbb",
          "transactionHash": "0xc1b3e28d7a50deac67be5c7effc513fb122849c4fabd909c2fa26dc145faebc9",
          "transactionIndex": "0x6a",
          "logIndex": "0x5d",
          "removed": false
        },
        {
          "address": "0xc48a5096cca716c250359840f487f7722639b50c",
          "topics": [
            "0xddf252ad1be2c89b69c2b068fc378daa952ba7f163c4a11628f55a4df523b3ef",
            "0x0000000000000000000000005b9e2da4bafab807b386c5c3df0ed05ce1c7d6e8",
            "0x000000000000000000000000eba5864d192954d02fb0da889bd1bd60493d83f6"
          ],
          "data": "0x0000000000000000000000000000000000000000000000056bc75e2d63100000",
          "blockHash": "0xe0a80beaff6be3e601d17176afa6671d766e0247fd1af17a549134e57d6b8f9f",
          "blockNumber": "0x66ebbb",
          "transactionHash": "0xc1b3e28d7a50deac67be5c7effc513fb122849c4fabd909c2fa26dc145faebc9",
          "transactionIndex": "0x6a",
          "logIndex": "0x5e",
          "removed": false
        }
      ],
      "logsBloom": "0x00000000000010000000000000000000001000000000000000000000000000000000000000000000000000000000000000000000000000000000000000000000000000000000000000000008000000000000000000000000000000000000000000000000020000000000000000000800000000000000000000000010000000000200000000000000000000000008000000000000000000000000000000000000000000000000000000000000000000000000000000000000000000000000000000000002000000000000000000008000000001000000000000000000000020040000000200000000000000000000000001000000000000000000000000000000",
      "type": "0x2",
      "transactionHash": "0xc1b3e28d7a50deac67be5c7effc513fb122849c4fabd909c2fa26dc145faebc9",
      "transactionIndex": "0x6a",
      "blockHash": "0xe0a80beaff6be3e601d17176afa6671d766e0247fd1af17a549134e57d6b8f9f",
      "blockNumber": "0x66ebbb",
      "gasUsed": "0x114af",
      "effectiveGasPrice": "0x89ed05791",
      "from": "0xeba5864d192954d02fb0da889bd1bd60493d83f6",
      "to": "0x5b9e2da4bafab807b386c5c3df0ed05ce1c7d6e8",
      "contractAddress": null
    },
    {
      "status": "0x1",
      "cumulativeGasUsed": "0xa66540",
      "logs": [
        {
          "address": "0xc48a5096cca716c250359840f487f7722639b50c",
          "topics": [
            "0x8c5be1e5ebec7d5bd14f71427d1e84f3dd0314c0f7b2291e5b200ac8c7c3b925",
            "0x000000000000000000000000eba5864d192954d02fb0da889bd1bd60493d83f6",
            "0x000000000000000000000000c11602973aae4805787f1cd496081cb5cb32aad1"
          ],
          "data": "0x000000000000000000000000000000000000000000000002b668e923d49bc000",
          "blockHash": "0x2308a457abeee4d98d7faebc1e388ca55218ec5202729d445c5f2c08bc357a0a",
          "blockNumber": "0x66ebbc",
          "transactionHash": "0x7f4b0eba860f199f351477b8e42440792408065171b3514234a9189a1be1f4de",
          "transactionIndex": "0x58",
          "logIndex": "0x82",
          "removed": false
        }
      ],
      "logsBloom": "0x00000000000010000000000000000000000000000000000000000000000000000000000000000000000000000000000000000000000000000000000000200000000000000000000000000000000000000000000000000000000000000000000000000000000000000000000080000000000000000000000000000000000000000200000000400000000000000000000000000000000000000000000000000000020000000000000000200000000000000000000000000000000000000000000000000000000000000000000000000000000001000000000000000000000000040010000200000000000000000000000001000000000000000000000000000000",
      "type": "0x2",
      "transactionHash": "0x7f4b0eba860f199f351477b8e42440792408065171b3514234a9189a1be1f4de",
      "transactionIndex": "0x58",
      "blockHash": "0x2308a457abeee4d98d7faebc1e388ca55218ec5202729d445c5f2c08bc357a0a",
      "blockNumber": "0x66ebbc",
      "gasUsed": "0xb4e4",
      "effectiveGasPrice": "0x8d7c3eb45",
      "from": "0xeba5864d192954d02fb0da889bd1bd60493d83f6",
      "to": "0xc48a5096cca716c250359840f487f7722639b50c",
      "contractAddress": null
    },
    {
      "status": "0x1",
      "cumulativeGasUsed": "0x931b8f",
      "logs": [
        {
          "address": "0xc48a5096cca716c250359840f487f7722639b50c",
          "topics": [
            "0x8c5be1e5ebec7d5bd14f71427d1e84f3dd0314c0f7b2291e5b200ac8c7c3b925",
            "0x000000000000000000000000eba5864d192954d02fb0da889bd1bd60493d83f6",
            "0x000000000000000000000000c11602973aae4805787f1cd496081cb5cb32aad1"
          ],
          "data": "0x000000000000000000000000000000000000000000000002b668e923d49bc000",
          "blockHash": "0x00be499c1d94770bdee59ddaa2960154c5622e2c5162023cbee57fc4caa16255",
          "blockNumber": "0x66ebbd",
          "transactionHash": "0xabe1e3da8824324f6703cf7212d1e2d2bb111a7425b8f71d9815708e83bea69f",
          "transactionIndex": "0x5a",
          "logIndex": "0x41",
          "removed": false
        }
      ],
      "logsBloom": "0x00000000000010000000000000000000000000000000000000000000000000000000000000000000000000000000000000000000000000000000000000200000000000000000000000000000000000000000000000000000000000000000000000000000000000000000000080000000000000000000000000000000000000000200000000400000000000000000000000000000000000000000000000000000020000000000000000200000000000000000000000000000000000000000000000000000000000000000000000000000000001000000000000000000000000040010000200000000000000000000000001000000000000000000000000000000",
      "type": "0x2",
      "transactionHash": "0xabe1e3da8824324f6703cf7212d1e2d2bb111a7425b8f71d9815708e83bea69f",
      "transactionIndex": "0x5a",
      "blockHash": "0x00be499c1d94770bdee59ddaa2960154c5622e2c5162023cbee57fc4caa16255",
      "blockNumber": "0x66ebbd",
      "gasUsed": "0x6728",
      "effectiveGasPrice": "0x8a1b9874f",
      "from": "0xeba5864d192954d02fb0da889bd1bd60493d83f6",
      "to": "0xc48a5096cca716c250359840f487f7722639b50c",
      "contractAddress": null
    },
    {
      "status": "0x1",
      "cumulativeGasUsed": "0xe16e80",
      "logs": [
        {
          "address": "0x3813e711ad6f6f5338e318849ce8a563b512e452",
          "topics": [
            "0x4d29de21de555af78a62fc82dd4bc05e9ae5b0660a37f04729527e0f22780cd3"
          ],
          "data": "0x00000000000000000000000000000000000000000000000ad78ebc5ac6200000",
          "blockHash": "0xff29a04f53c835c45878a55f23e1c303dd41774435b51b2d3bd277d6976526b5",
          "blockNumber": "0x66ebbf",
          "transactionHash": "0xf5c7d7093a7b9bed2017ebd583f496f5539e8f058640545cb6085b39d645cff0",
          "transactionIndex": "0x89",
          "logIndex": "0x81",
          "removed": false
        },
        {
          "address": "0xf4d3f52c75e6cb751fbbe7fde5d5f4d9ac97e2fe",
          "topics": [
            "0xddf252ad1be2c89b69c2b068fc378daa952ba7f163c4a11628f55a4df523b3ef",
            "0x0000000000000000000000000000000000000000000000000000000000000000",
            "0x0000000000000000000000000e446bc1509158383b1acc358d200b25bff13ce8"
          ],
          "data": "0x000000000000000000000000000000000000000000000000017dc762d068b3d8",
          "blockHash": "0xff29a04f53c835c45878a55f23e1c303dd41774435b51b2d3bd277d6976526b5",
          "blockNumber": "0x66ebbf",
          "transactionHash": "0xf5c7d7093a7b9bed2017ebd583f496f5539e8f058640545cb6085b39d645cff0",
          "transactionIndex": "0x89",
          "logIndex": "0x82",
          "removed": false
        },
        {
          "address": "0xf4d3f52c75e6cb751fbbe7fde5d5f4d9ac97e2fe",
          "topics": [
            "0xddf252ad1be2c89b69c2b068fc378daa952ba7f163c4a11628f55a4df523b3ef",
            "0x0000000000000000000000000000000000000000000000000000000000000000",
            "0x0000000000000000000000000fc3d236a4e0609d83e6919dd3c1a0e2d0f2a176"
          ],
          "data": "0x00000000000000000000000000000000000000000000000003d5b790610d3c2a",
          "blockHash": "0xff29a04f53c835c45878a55f23e1c303dd41774435b51b2d3bd277d6976526b5",
          "blockNumber": "0x66ebbf",
          "transactionHash": "0xf5c7d7093a7b9bed2017ebd583f496f5539e8f058640545cb6085b39d645cff0",
          "transactionIndex": "0x89",
          "logIndex": "0x83",
          "removed": false
        },
        {
          "address": "0xc48a5096cca716c250359840f487f7722639b50c",
          "topics": [
            "0x8c5be1e5ebec7d5bd14f71427d1e84f3dd0314c0f7b2291e5b200ac8c7c3b925",
            "0x000000000000000000000000eba5864d192954d02fb0da889bd1bd60493d83f6",
            "0x000000000000000000000000c11602973aae4805787f1cd496081cb5cb32aad1"
          ],
          "data": "0x00000000000000000000000000000000000000000000000000853a0d2313c000",
          "blockHash": "0xff29a04f53c835c45878a55f23e1c303dd41774435b51b2d3bd277d6976526b5",
          "blockNumber": "0x66ebbf",
          "transactionHash": "0xf5c7d7093a7b9bed2017ebd583f496f5539e8f058640545cb6085b39d645cff0",
          "transactionIndex": "0x89",
          "logIndex": "0x84",
          "removed": false
        },
        {
          "address": "0xc48a5096cca716c250359840f487f7722639b50c",
          "topics": [
            "0xddf252ad1be2c89b69c2b068fc378daa952ba7f163c4a11628f55a4df523b3ef",
            "0x000000000000000000000000eba5864d192954d02fb0da889bd1bd60493d83f6",
            "0x0000000000000000000000003ad5a756653f785f5aa3f34965b0494e1dd07789"
          ],
          "data": "0x000000000000000000000000000000000000000000000002b5e3af16b1880000",
          "blockHash": "0xff29a04f53c835c45878a55f23e1c303dd41774435b51b2d3bd277d6976526b5",
          "blockNumber": "0x66ebbf",
          "transactionHash": "0xf5c7d7093a7b9bed2017ebd583f496f5539e8f058640545cb6085b39d645cff0",
          "transactionIndex": "0x89",
          "logIndex": "0x85",
          "removed": false
        },
        {
          "address": "0x3ad5a756653f785f5aa3f34965b0494e1dd07789",
          "topics": [
            "0x9bbe217b4113a0fc957e51f8db99c9989f520e3c6bcca7a8e12c6316eaf995bf"
          ],
          "data": "0x0000000000000000000000000000000000000000000000056bc75e2d63100000",
          "blockHash": "0xff29a04f53c835c45878a55f23e1c303dd41774435b51b2d3bd277d6976526b5",
          "blockNumber": "0x66ebbf",
          "transactionHash": "0xf5c7d7093a7b9bed2017ebd583f496f5539e8f058640545cb6085b39d645cff0",
          "transactionIndex": "0x89",
          "logIndex": "0x86",
          "removed": false
        },
        {
          "address": "0xf4d3f52c75e6cb751fbbe7fde5d5f4d9ac97e2fe",
          "topics": [
            "0xddf252ad1be2c89b69c2b068fc378daa952ba7f163c4a11628f55a4df523b3ef",
            "0x0000000000000000000000000000000000000000000000000000000000000000",
            "0x000000000000000000000000eba5864d192954d02fb0da889bd1bd60493d83f6"
          ],
          "data": "0x00000000000000000000000000000000000000000000006c6b935b8bbd400000",
          "blockHash": "0xff29a04f53c835c45878a55f23e1c303dd41774435b51b2d3bd277d6976526b5",
          "blockNumber": "0x66ebbf",
          "transactionHash": "0xf5c7d7093a7b9bed2017ebd583f496f5539e8f058640545cb6085b39d645cff0",
          "transactionIndex": "0x89",
          "logIndex": "0x87",
          "removed": false
        },
        {
          "address": "0xc48a5096cca716c250359840f487f7722639b50c",
          "topics": [
            "0x8c5be1e5ebec7d5bd14f71427d1e84f3dd0314c0f7b2291e5b200ac8c7c3b925",
            "0x000000000000000000000000eba5864d192954d02fb0da889bd1bd60493d83f6",
            "0x000000000000000000000000c11602973aae4805787f1cd496081cb5cb32aad1"
          ],
          "data": "0x0000000000000000000000000000000000000000000000000000000000000000",
          "blockHash": "0xff29a04f53c835c45878a55f23e1c303dd41774435b51b2d3bd277d6976526b5",
          "blockNumber": "0x66ebbf",
          "transactionHash": "0xf5c7d7093a7b9bed2017ebd583f496f5539e8f058640545cb6085b39d645cff0",
          "transactionIndex": "0x89",
          "logIndex": "0x88",
          "removed": false
        },
        {
          "address": "0xc48a5096cca716c250359840f487f7722639b50c",
          "topics": [
            "0xddf252ad1be2c89b69c2b068fc378daa952ba7f163c4a11628f55a4df523b3ef",
            "0x000000000000000000000000eba5864d192954d02fb0da889bd1bd60493d83f6",
            "0x000000000000000000000000dc35ea1bd1d409cf7bdcda913a6c8226ae1ad200"
          ],
          "data": "0x00000000000000000000000000000000000000000000000000853a0d2313c000",
          "blockHash": "0xff29a04f53c835c45878a55f23e1c303dd41774435b51b2d3bd277d6976526b5",
          "blockNumber": "0x66ebbf",
          "transactionHash": "0xf5c7d7093a7b9bed2017ebd583f496f5539e8f058640545cb6085b39d645cff0",
          "transactionIndex": "0x89",
          "logIndex": "0x89",
          "removed": false
        },
        {
          "address": "0x742e363ed1cbe1dfbce40a81e2ca4a1abbea8524",
          "topics": [
            "0xddf252ad1be2c89b69c2b068fc378daa952ba7f163c4a11628f55a4df523b3ef",
            "0x0000000000000000000000000000000000000000000000000000000000000000",
            "0x0000000000000000000000005b9e2da4bafab807b386c5c3df0ed05ce1c7d6e8",
            "0x5af48a743e6fb3215c14bf17843302b34be82cebfd94ac10c59d0f20bf2d6f07"
          ],
          "data": "0x",
          "blockHash": "0xff29a04f53c835c45878a55f23e1c303dd41774435b51b2d3bd277d6976526b5",
          "blockNumber": "0x66ebbf",
          "transactionHash": "0xf5c7d7093a7b9bed2017ebd583f496f5539e8f058640545cb6085b39d645cff0",
          "transactionIndex": "0x89",
          "logIndex": "0x8a",
          "removed": false
        },
        {
          "address": "0x2cabfbe1144f955185d43bd6d2149bc3b626d923",
          "topics": [
            "0x0fba2673863b12c7b8463f3fa2f9b0cb1d534c573cdec5b5d895ee00d6ce6f5e",
            "0x5af48a743e6fb3215c14bf17843302b34be82cebfd94ac10c59d0f20bf2d6f07"
          ],
          "data": "0x00000000000000000000000000000000000000000000006c70e60acf0e7ffb3c000000000000000000000000000000000000000000000002b5e3af16b1880000000000000000000000000000000000000000000000000002b5e3af16b1880000000000000000000000000000000000000000000000000000002386f26fc1000000000000000000000000000000000000000000000000000000000000000000000000000000000000000000000000000000000000000000000000000000000000",
          "blockHash": "0xff29a04f53c835c45878a55f23e1c303dd41774435b51b2d3bd277d6976526b5",
          "blockNumber": "0x66ebbf",
          "transactionHash": "0xf5c7d7093a7b9bed2017ebd583f496f5539e8f058640545cb6085b39d645cff0",
          "transactionIndex": "0x89",
          "logIndex": "0x8b",
          "removed": false
        },
        {
          "address": "0x2cabfbe1144f955185d43bd6d2149bc3b626d923",
          "topics": [
            "0x962110f281c1213763cd97a546b337b3cbfd25a31ea9723e9d8b7376ba45da1a",
            "0x5af48a743e6fb3215c14bf17843302b34be82cebfd94ac10c59d0f20bf2d6f07"
          ],
          "data": "0x0000000000000000000000000000000000000000000000000000000000000000000000000000000000000000000000000000000000000000002386f26fc1000000000000000000000000000000000000000000000000000000000000000000000000000000000000000000000000000000000000000000000552af43513ffb3c00000000000000000000000000000000000000000000006c6b935b8bbd4000000000000000000000000000000000000000000000000000000000000000000000000000000000000000000000000000000000000000000002b5e3af16b1880000",
          "blockHash": "0xff29a04f53c835c45878a55f23e1c303dd41774435b51b2d3bd277d6976526b5",
          "blockNumber": "0x66ebbf",
          "transactionHash": "0xf5c7d7093a7b9bed2017ebd583f496f5539e8f058640545cb6085b39d645cff0",
          "transactionIndex": "0x89",
          "logIndex": "0x8c",
          "removed": false
        }
      ],
      "logsBloom": "0x00008020400010000000100000000000001000000000000000000010000000000000000000000000020000000000000400000040100000000200000004a00000040000000000420000000008000000000010000400000000000000800000000000000008020020010000000080000810000000000000208000000010008000000200000400400000000000040008000000001000400000000000000800000000820000000000000000200000008000000000000401008000000000000000020000000002000000000000000000008000000001000040000000000000000020040010000200000000000000000000000001080008080000000000000000000000",
      "type": "0x2",
      "transactionHash": "0xf5c7d7093a7b9bed2017ebd583f496f5539e8f058640545cb6085b39d645cff0",
      "transactionIndex": "0x89",
      "blockHash": "0xff29a04f53c835c45878a55f23e1c303dd41774435b51b2d3bd277d6976526b5",
      "blockNumber": "0x66ebbf",
      "gasUsed": "0x8090b",
      "effectiveGasPrice": "0x7f28801d1",
      "from": "0xeba5864d192954d02fb0da889bd1bd60493d83f6",
      "to": "0xc11602973aae4805787f1cd496081cb5cb32aad1",
      "contractAddress": null
    },
    {
      "status": "0x1",
      "cumulativeGasUsed": "0xb9f138",
      "logs": [
        {
          "address": "0x742e363ed1cbe1dfbce40a81e2ca4a1abbea8524",
          "topics": [
            "0xddf252ad1be2c89b69c2b068fc378daa952ba7f163c4a11628f55a4df523b3ef",
            "0x0000000000000000000000005b9e2da4bafab807b386c5c3df0ed05ce1c7d6e8",
            "0x000000000000000000000000eba5864d192954d02fb0da889bd1bd60493d83f6",
            "0x5af48a743e6fb3215c14bf17843302b34be82cebfd94ac10c59d0f20bf2d6f07"
          ],
          "data": "0x",
          "blockHash": "0xdc014e28919e896226044016c3ea17eef744144a2b9e79cb4cc5262c4de8e16b",
          "blockNumber": "0x66ebc1",
          "transactionHash": "0xce6b24a4b5d150a6fc2010fd9b5bf349e8f5f8d5a64f24b6ebe9b7baf4462180",
          "transactionIndex": "0x51",
          "logIndex": "0x71",
          "removed": false
        }
      ],
      "logsBloom": "0x00000000400000000000000000000000001000000000000000000000000000000000000000000000000000000000000000000000000000000000000000000000000000000000000000000008000000000000000000000000000000000000000000000008000020000000000000000000000000000000000000000010000000000200000000000000000000040008000000001000000000000000000000000000000000000000000000000000000000000000000001000000000000000000000000000002000000000000000000008000000001000000000000000000000000040000000000000000000000000000000000000000000000000000000000000000",
      "type": "0x2",
      "transactionHash": "0xce6b24a4b5d150a6fc2010fd9b5bf349e8f5f8d5a64f24b6ebe9b7baf4462180",
      "transactionIndex": "0x51",
      "blockHash": "0xdc014e28919e896226044016c3ea17eef744144a2b9e79cb4cc5262c4de8e16b",
      "blockNumber": "0x66ebc1",
      "gasUsed": "0xabe8",
      "effectiveGasPrice": "0x7e7b976d2",
      "from": "0xeba5864d192954d02fb0da889bd1bd60493d83f6",
      "to": "0x5b9e2da4bafab807b386c5c3df0ed05ce1c7d6e8",
      "contractAddress": null
    }
  ],
  "libraries": [],
  "pending": [],
  "returns": {},
  "timestamp": 1727093386,
  "chain": 11155111,
  "commit": "f5cbe5a"
}