{
  "transactions": [
    {
      "hash": "0xfc129ba9416c1078735144f147a18fc312b94481c428ddae3ec6bb82e23f0d1b",
      "transactionType": "CREATE",
      "contractName": null,
      "contractAddress": "0x1d96a4f35d9855367b7d1299292b4a3f9534857a",
      "function": null,
      "arguments": null,
      "transaction": {
        "from": "0xeba5864d192954d02fb0da889bd1bd60493d83f6",
        "gas": "0x43321",
        "value": "0x0",
        "input": "0x608060405234801561001057600080fd5b506102de806100206000396000f3fe608060405234801561001057600080fd5b50600436106100365760003560e01c8063339f897e1461003b5780635b60133714610050575b600080fd5b61004e61004936600461021d565b610063565b005b61004e61005e366004610249565b6100cd565b6040516323b872dd60e01b8152306004820152336024820152604481018290526001600160a01b038316906323b872dd90606401600060405180830381600087803b1580156100b157600080fd5b505af11580156100c5573d6000803e3d6000fd5b505050505050565b806001600160a01b031663fd2210316040518163ffffffff1660e01b8152600401600060405180830381600087803b15801561010857600080fd5b505af115801561011c573d6000803e3d6000fd5b50506040516370a0823160e01b81523060048201526001600160a01b038416925063a9059cbb9150339083906370a0823190602401602060405180830381865afa15801561016e573d6000803e3d6000fd5b505050506040513d601f19601f82011682018060405250810190610192919061026d565b6040516001600160e01b031960e085901b1681526001600160a01b03909216600483015260248201526044016020604051808303816000875af11580156101dd573d6000803e3d6000fd5b505050506040513d601f19601f820116820180604052508101906102019190610286565b5050565b6001600160a01b038116811461021a57600080fd5b50565b6000806040838503121561023057600080fd5b823561023b81610205565b946020939093013593505050565b60006020828403121561025b57600080fd5b813561026681610205565b9392505050565b60006020828403121561027f57600080fd5b5051919050565b60006020828403121561029857600080fd5b8151801515811461026657600080fdfea2646970667358221220eca82be0a807cf66a43072b82875d819c5e96b8f989005bd14b1e501bc93d71864736f6c63430008120033",
        "nonce": "0x144",
        "chainId": "0xaa36a7"
      },
      "additionalContracts": [],
      "isFixedGasLimit": false
    },
    {
      "hash": "0x1cd9a75e2a7eb3f7f83a6bd9e1848b81858e9daa1c951731d3c27a2e43790752",
      "transactionType": "CALL",
      "contractName": "BorrowerOperations",
      "contractAddress": "0xc11602973aae4805787f1cd496081cb5cb32aad1",
      "function": "registerBatchManager(uint128,uint128,uint128,uint128,uint128)",
      "arguments": [
        "5000000000000000",
        "1000000000000000000",
        "25000000000000000",
        "1000000000000000",
        "1"
      ],
      "transaction": {
        "from": "0xeba5864d192954d02fb0da889bd1bd60493d83f6",
        "to": "0xc11602973aae4805787f1cd496081cb5cb32aad1",
        "gas": "0x40d0a",
        "value": "0x0",
        "input": "0xbcb266c00000000000000000000000000000000000000000000000000011c37937e080000000000000000000000000000000000000000000000000000de0b6b3a76400000000000000000000000000000000000000000000000000000058d15e1762800000000000000000000000000000000000000000000000000000038d7ea4c680000000000000000000000000000000000000000000000000000000000000000001",
        "nonce": "0x145",
        "chainId": "0xaa36a7"
      },
      "additionalContracts": [],
      "isFixedGasLimit": false
    },
    {
      "hash": "0xaa90d0bff4bcf34cd78badaba32c177becaa401568a27781525443dd7ba71b46",
      "transactionType": "CREATE",
      "contractName": null,
      "contractAddress": "0x0cb10c92e457f7caa2528031a7ebe541668b58ab",
      "function": null,
      "arguments": null,
      "transaction": {
        "from": "0xeba5864d192954d02fb0da889bd1bd60493d83f6",
        "gas": "0x13f7d",
        "value": "0x0",
        "input": "0x3d602d80600a3d3981f3363d3d373d3d3d363d731d96a4f35d9855367b7d1299292b4a3f9534857a5af43d82803e903d91602b57fd5bf3",
        "nonce": "0x146",
        "chainId": "0xaa36a7"
      },
      "additionalContracts": [],
      "isFixedGasLimit": false
    },
    {
      "hash": "0x47f8fed0ddd3165120038d89c9639c12be5746c04b4db1ad7537db1d4a25cac5",
      "transactionType": "CALL",
      "contractName": null,
      "contractAddress": "0x0cb10c92e457f7caa2528031a7ebe541668b58ab",
      "function": "tap(address)",
      "arguments": [
        "0xc48A5096cCA716C250359840F487f7722639B50c"
      ],
      "transaction": {
        "from": "0xeba5864d192954d02fb0da889bd1bd60493d83f6",
        "to": "0x0cb10c92e457f7caa2528031a7ebe541668b58ab",
        "gas": "0x17e2a",
        "value": "0x0",
        "input": "0x5b601337000000000000000000000000c48a5096cca716c250359840f487f7722639b50c",
        "nonce": "0x147",
        "chainId": "0xaa36a7"
      },
      "additionalContracts": [],
      "isFixedGasLimit": false
    },
    {
      "hash": "0xc6772f31b323d33f852af65e32f462b2323acb4d1bf937ff89689edc69910d6e",
      "transactionType": "CALL",
      "contractName": "WETHTester",
      "contractAddress": "0xc48a5096cca716c250359840f487f7722639b50c",
      "function": "approve(address,uint256)",
      "arguments": [
        "0xC11602973aAe4805787F1CD496081CB5Cb32AaD1",
        "50037500000000000000"
      ],
      "transaction": {
        "from": "0xeba5864d192954d02fb0da889bd1bd60493d83f6",
        "to": "0xc48a5096cca716c250359840f487f7722639b50c",
        "gas": "0x9d96",
        "value": "0x0",
        "input": "0x095ea7b3000000000000000000000000c11602973aae4805787f1cd496081cb5cb32aad1000000000000000000000000000000000000000000000002b668e923d49bc000",
        "nonce": "0x148",
        "chainId": "0xaa36a7"
      },
      "additionalContracts": [],
      "isFixedGasLimit": false
    },
    {
      "hash": "0xd41d19fc565de3efe961d3dd5101f4279e19800c4087a51fbf6c98aec90e5c44",
      "transactionType": "CALL",
      "contractName": "WETHTester",
      "contractAddress": "0xc48a5096cca716c250359840f487f7722639b50c",
      "function": "approve(address,uint256)",
      "arguments": [
        "0xC11602973aAe4805787F1CD496081CB5Cb32AaD1",
        "50037500000000000000"
      ],
      "transaction": {
        "from": "0xeba5864d192954d02fb0da889bd1bd60493d83f6",
        "to": "0xc48a5096cca716c250359840f487f7722639b50c",
        "gas": "0x8e7b",
        "value": "0x0",
        "input": "0x095ea7b3000000000000000000000000c11602973aae4805787f1cd496081cb5cb32aad1000000000000000000000000000000000000000000000002b668e923d49bc000",
        "nonce": "0x149",
        "chainId": "0xaa36a7"
      },
      "additionalContracts": [],
      "isFixedGasLimit": false
    },
    {
      "hash": "0x8ae3fe63a84635a68ddc574dcbdf94f2ca4ae98caf38d24174377c679cd69790",
      "transactionType": "CALL",
      "contractName": "BorrowerOperations",
      "contractAddress": "0xc11602973aae4805787f1cd496081cb5cb32aad1",
      "function": "openTrove(address,uint256,uint256,uint256,uint256,uint256,uint256,uint256,address,address,address)",
      "arguments": [
        "0x0cb10c92e457F7CAa2528031A7ebe541668b58Ab",
        "0",
        "50000000000000000000",
        "2000000000000000000000",
        "0",
        "0",
        "10000000000000000",
        "115792089237316195423570985008687907853269984665640564039457584007913129639935",
        "0x0000000000000000000000000000000000000000",
        "0x0000000000000000000000000000000000000000",
        "0x0000000000000000000000000000000000000000"
      ],
      "transaction": {
        "from": "0xeba5864d192954d02fb0da889bd1bd60493d83f6",
        "to": "0xc11602973aae4805787f1cd496081cb5cb32aad1",
        "gas": "0x10986f",
        "value": "0x0",
        "input": "0x9cb90ba60000000000000000000000000cb10c92e457f7caa2528031a7ebe541668b58ab0000000000000000000000000000000000000000000000000000000000000000000000000000000000000000000000000000000000000002b5e3af16b188000000000000000000000000000000000000000000000000006c6b935b8bbd40000000000000000000000000000000000000000000000000000000000000000000000000000000000000000000000000000000000000000000000000000000000000000000000000000000000000000000000000000000000000002386f26fc10000ffffffffffffffffffffffffffffffffffffffffffffffffffffffffffffffff000000000000000000000000000000000000000000000000000000000000000000000000000000000000000000000000000000000000000000000000000000000000000000000000000000000000000000000000000000000000000000000000",
        "nonce": "0x14a",
        "chainId": "0xaa36a7"
      },
      "additionalContracts": [],
      "isFixedGasLimit": false
    },
    {
      "hash": "0x555fa1978b18d715b865e4d571821164d4f906b8a17ea03ebc386e09dc07336a",
      "transactionType": "CALL",
      "contractName": null,
      "contractAddress": "0x0cb10c92e457f7caa2528031a7ebe541668b58ab",
      "function": "sweepTrove(address,uint256)",
      "arguments": [
        "0x742e363ed1Cbe1dfbce40a81e2CA4a1AbbeA8524",
        "56596090999234618830261303948234722284102573726011449733426525053493491917677"
      ],
      "transaction": {
        "from": "0xeba5864d192954d02fb0da889bd1bd60493d83f6",
        "to": "0x0cb10c92e457f7caa2528031a7ebe541668b58ab",
        "gas": "0x149b5",
        "value": "0x0",
        "input": "0x339f897e000000000000000000000000742e363ed1cbe1dfbce40a81e2ca4a1abbea85247d204098646b3045580fd124c6fd8ce7bf554df9ca8c125bfe02fd5aad31e36d",
        "nonce": "0x14b",
        "chainId": "0xaa36a7"
      },
      "additionalContracts": [],
      "isFixedGasLimit": false
    }
  ],
  "receipts": [
    {
      "status": "0x1",
      "cumulativeGasUsed": "0x84e9a2",
      "logs": [],
      "logsBloom": "0x00000000000000000000000000000000000000000000000000000000000000000000000000000000000000000000000000000000000000000000000000000000000000000000000000000000000000000000000000000000000000000000000000000000000000000000000000000000000000000000000000000000000000000000000000000000000000000000000000000000000000000000000000000000000000000000000000000000000000000000000000000000000000000000000000000000000000000000000000000000000000000000000000000000000000000000000000000000000000000000000000000000000000000000000000000000",
      "type": "0x2",
      "transactionHash": "0xfc129ba9416c1078735144f147a18fc312b94481c428ddae3ec6bb82e23f0d1b",
      "transactionIndex": "0x44",
      "blockHash": "0x12b1225b6955733c03be9df97a14c70e777605fbd7f8edab766d4f7591e69083",
      "blockNumber": "0x66eba2",
      "gasUsed": "0x33b06",
      "effectiveGasPrice": "0x63d534050",
      "from": "0xeba5864d192954d02fb0da889bd1bd60493d83f6",
      "to": null,
      "contractAddress": "0x1d96a4f35d9855367b7d1299292b4a3f9534857a"
    },
    {
      "status": "0x1",
      "cumulativeGasUsed": "0xc0abcb",
      "logs": [
        {
          "address": "0x2cabfbe1144f955185d43bd6d2149bc3b626d923",
          "topics": [
            "0xecf6daab6f1facdfdd8dfe32b525744d8a7a940824dd52e2b53c24028ee5faa0",
            "0x000000000000000000000000eba5864d192954d02fb0da889bd1bd60493d83f6"
          ],
          "data": "0x0000000000000000000000000000000000000000000000000000000000000000000000000000000000000000000000000000000000000000000000000000000000000000000000000000000000000000000000000000000000000000000000000000000000000000000000000000000000000000000000000058d15e1762800000000000000000000000000000000000000000000000000000038d7ea4c6800000000000000000000000000000000000000000000000000000000000000000000000000000000000000000000000000000000000000000000000000000000000",
          "blockHash": "0x0b8a73b6512376fc5a09927a6a266d16300d2f7f327fb1d62f636deaac485210",
          "blockNumber": "0x66eba3",
          "transactionHash": "0x1cd9a75e2a7eb3f7f83a6bd9e1848b81858e9daa1c951731d3c27a2e43790752",
          "transactionIndex": "0x6e",
          "logIndex": "0x68",
          "removed": false
        }
      ],
      "logsBloom": "0x00000000000000000000000000000000000000000000000000000000000000000000000000000000000000000000000000000000000000000000000000000000000000000000400000000000000000000000000000000000000000000000000000000000000000000010000000000000000000000000000000000000000000000200000000000000000000000000000000080000000000000000000000000000000000000000000000000000000000000000000000000000000000000000000000000000000000000000000000000000000001000040000000000000000000040000000000000000000000000000000002080000000000000000000000000000",
      "type": "0x2",
      "transactionHash": "0x1cd9a75e2a7eb3f7f83a6bd9e1848b81858e9daa1c951731d3c27a2e43790752",
      "transactionIndex": "0x6e",
      "blockHash": "0x0b8a73b6512376fc5a09927a6a266d16300d2f7f327fb1d62f636deaac485210",
      "blockNumber": "0x66eba3",
      "gasUsed": "0x2eecd",
      "effectiveGasPrice": "0x5faa13684",
      "from": "0xeba5864d192954d02fb0da889bd1bd60493d83f6",
      "to": "0xc11602973aae4805787f1cd496081cb5cb32aad1",
      "contractAddress": null
    },
    {
      "status": "0x1",
      "cumulativeGasUsed": "0xd20015",
      "logs": [],
      "logsBloom": "0x00000000000000000000000000000000000000000000000000000000000000000000000000000000000000000000000000000000000000000000000000000000000000000000000000000000000000000000000000000000000000000000000000000000000000000000000000000000000000000000000000000000000000000000000000000000000000000000000000000000000000000000000000000000000000000000000000000000000000000000000000000000000000000000000000000000000000000000000000000000000000000000000000000000000000000000000000000000000000000000000000000000000000000000000000000000",
      "type": "0x2",
      "transactionHash": "0xaa90d0bff4bcf34cd78badaba32c177becaa401568a27781525443dd7ba71b46",
      "transactionIndex": "0x58",
      "blockHash": "0xecf82c5282a8e4491dcea9732a3d8c5517729ffb10f2af2becab13f5e98e3aa9",
      "blockNumber": "0x66eba4",
      "gasUsed": "0xf5c3",
      "effectiveGasPrice": "0x5e845dd79",
      "from": "0xeba5864d192954d02fb0da889bd1bd60493d83f6",
      "to": null,
      "contractAddress": "0x0cb10c92e457f7caa2528031a7ebe541668b58ab"
    },
    {
      "status": "0x1",
      "cumulativeGasUsed": "0x1005ed6",
      "logs": [
        {
          "address": "0xc48a5096cca716c250359840f487f7722639b50c",
          "topics": [
            "0xddf252ad1be2c89b69c2b068fc378daa952ba7f163c4a11628f55a4df523b3ef",
            "0x0000000000000000000000000000000000000000000000000000000000000000",
            "0x0000000000000000000000000cb10c92e457f7caa2528031a7ebe541668b58ab"
          ],
          "data": "0x0000000000000000000000000000000000000000000000056bc75e2d63100000",
          "blockHash": "0xdc50d7cad856d0f818e9b4731293740c93c08316e8aed6cb1b69686845d63d98",
          "blockNumber": "0x66eba6",
          "transactionHash": "0x47f8fed0ddd3165120038d89c9639c12be5746c04b4db1ad7537db1d4a25cac5",
          "transactionIndex": "0x9e",
          "logIndex": "0xa4",
          "removed": false
        },
        {
          "address": "0xc48a5096cca716c250359840f487f7722639b50c",
          "topics": [
            "0xddf252ad1be2c89b69c2b068fc378daa952ba7f163c4a11628f55a4df523b3ef",
            "0x0000000000000000000000000cb10c92e457f7caa2528031a7ebe541668b58ab",
            "0x000000000000000000000000eba5864d192954d02fb0da889bd1bd60493d83f6"
          ],
          "data": "0x0000000000000000000000000000000000000000000000056bc75e2d63100000",
          "blockHash": "0xdc50d7cad856d0f818e9b4731293740c93c08316e8aed6cb1b69686845d63d98",
          "blockNumber": "0x66eba6",
          "transactionHash": "0x47f8fed0ddd3165120038d89c9639c12be5746c04b4db1ad7537db1d4a25cac5",
          "transactionIndex": "0x9e",
          "logIndex": "0xa5",
          "removed": false
        }
      ],
      "logsBloom": "0x00000000000010000000000000000000000000000000000000000000010000000000000000000000000000000000000000000000000000000000000000000000000000000000000000000008000000000000000000000000000000020000000000000000020000000000000000000800000000000000000000000010000000000200000000000000000000002000000000000000000000000000000000000000000000000000000000000000000000000000000000000000000000000000000000000002000000000000000000000000000001000000000000000000000020040000000200000000000000000000000001000000000000000000000000000000",
      "type": "0x2",
      "transactionHash": "0x47f8fed0ddd3165120038d89c9639c12be5746c04b4db1ad7537db1d4a25cac5",
      "transactionIndex": "0x9e",
      "blockHash": "0xdc50d7cad856d0f818e9b4731293740c93c08316e8aed6cb1b69686845d63d98",
      "blockNumber": "0x66eba6",
      "gasUsed": "0x114af",
      "effectiveGasPrice": "0x5964db5b3",
      "from": "0xeba5864d192954d02fb0da889bd1bd60493d83f6",
      "to": "0x0cb10c92e457f7caa2528031a7ebe541668b58ab",
      "contractAddress": null
    },
    {
      "status": "0x1",
      "cumulativeGasUsed": "0x126e9ff",
      "logs": [
        {
          "address": "0xc48a5096cca716c250359840f487f7722639b50c",
          "topics": [
            "0x8c5be1e5ebec7d5bd14f71427d1e84f3dd0314c0f7b2291e5b200ac8c7c3b925",
            "0x000000000000000000000000eba5864d192954d02fb0da889bd1bd60493d83f6",
            "0x000000000000000000000000c11602973aae4805787f1cd496081cb5cb32aad1"
          ],
          "data": "0x000000000000000000000000000000000000000000000002b668e923d49bc000",
          "blockHash": "0x6f003ff13ec67f5493dc9b4800fb061dca0be24e61382bfbe15f1a78c8a766cd",
          "blockNumber": "0x66eba7",
          "transactionHash": "0xc6772f31b323d33f852af65e32f462b2323acb4d1bf937ff89689edc69910d6e",
          "transactionIndex": "0x8e",
          "logIndex": "0xc8",
          "removed": false
        }
      ],
      "logsBloom": "0x00000000000010000000000000000000000000000000000000000000000000000000000000000000000000000000000000000000000000000000000000200000000000000000000000000000000000000000000000000000000000000000000000000000000000000000000080000000000000000000000000000000000000000200000000400000000000000000000000000000000000000000000000000000020000000000000000200000000000000000000000000000000000000000000000000000000000000000000000000000000001000000000000000000000000040010000200000000000000000000000001000000000000000000000000000000",
      "type": "0x2",
      "transactionHash": "0xc6772f31b323d33f852af65e32f462b2323acb4d1bf937ff89689edc69910d6e",
      "transactionIndex": "0x8e",
      "blockHash": "0x6f003ff13ec67f5493dc9b4800fb061dca0be24e61382bfbe15f1a78c8a766cd",
      "blockNumber": "0x66eba7",
      "gasUsed": "0x7218",
      "effectiveGasPrice": "0x5deb60d2d",
      "from": "0xeba5864d192954d02fb0da889bd1bd60493d83f6",
      "to": "0xc48a5096cca716c250359840f487f7722639b50c",
      "contractAddress": null
    },
    {
      "status": "0x1",
      "cumulativeGasUsed": "0x99c85d",
      "logs": [
        {
          "address": "0xc48a5096cca716c250359840f487f7722639b50c",
          "topics": [
            "0x8c5be1e5ebec7d5bd14f71427d1e84f3dd0314c0f7b2291e5b200ac8c7c3b925",
            "0x000000000000000000000000eba5864d192954d02fb0da889bd1bd60493d83f6",
            "0x000000000000000000000000c11602973aae4805787f1cd496081cb5cb32aad1"
          ],
          "data": "0x000000000000000000000000000000000000000000000002b668e923d49bc000",
          "blockHash": "0x57cfed9ed4d78d84268ec5b12b1ebd023ee06cb104cf59208037340fb7143561",
          "blockNumber": "0x66eba8",
          "transactionHash": "0xd41d19fc565de3efe961d3dd5101f4279e19800c4087a51fbf6c98aec90e5c44",
          "transactionIndex": "0x31",
          "logIndex": "0x5d",
          "removed": false
        }
      ],
      "logsBloom": "0x00000000000010000000000000000000000000000000000000000000000000000000000000000000000000000000000000000000000000000000000000200000000000000000000000000000000000000000000000000000000000000000000000000000000000000000000080000000000000000000000000000000000000000200000000400000000000000000000000000000000000000000000000000000020000000000000000200000000000000000000000000000000000000000000000000000000000000000000000000000000001000000000000000000000000040010000200000000000000000000000001000000000000000000000000000000",
      "type": "0x2",
      "transactionHash": "0xd41d19fc565de3efe961d3dd5101f4279e19800c4087a51fbf6c98aec90e5c44",
      "transactionIndex": "0x31",
      "blockHash": "0x57cfed9ed4d78d84268ec5b12b1ebd023ee06cb104cf59208037340fb7143561",
      "blockNumber": "0x66eba8",
      "gasUsed": "0x6728",
      "effectiveGasPrice": "0x63919d393",
      "from": "0xeba5864d192954d02fb0da889bd1bd60493d83f6",
      "to": "0xc48a5096cca716c250359840f487f7722639b50c",
      "contractAddress": null
    },
    {
      "status": "0x1",
      "cumulativeGasUsed": "0xb8651c",
      "logs": [
        {
          "address": "0x3813e711ad6f6f5338e318849ce8a563b512e452",
          "topics": [
            "0x4d29de21de555af78a62fc82dd4bc05e9ae5b0660a37f04729527e0f22780cd3"
          ],
          "data": "0x00000000000000000000000000000000000000000000000ad78ebc5ac6200000",
          "blockHash": "0x596a7387216d5d850bfc60804c039f94c82568dce50537430d59d140b48bc35b",
          "blockNumber": "0x66eba9",
          "transactionHash": "0x8ae3fe63a84635a68ddc574dcbdf94f2ca4ae98caf38d24174377c679cd69790",
          "transactionIndex": "0x4f",
          "logIndex": "0x84",
          "removed": false
        },
        {
          "address": "0xf4d3f52c75e6cb751fbbe7fde5d5f4d9ac97e2fe",
          "topics": [
            "0xddf252ad1be2c89b69c2b068fc378daa952ba7f163c4a11628f55a4df523b3ef",
            "0x0000000000000000000000000000000000000000000000000000000000000000",
            "0x0000000000000000000000000e446bc1509158383b1acc358d200b25bff13ce8"
          ],
          "data": "0x000000000000000000000000000000000000000000000000017d8d3d3c7af57b",
          "blockHash": "0x596a7387216d5d850bfc60804c039f94c82568dce50537430d59d140b48bc35b",
          "blockNumber": "0x66eba9",
          "transactionHash": "0x8ae3fe63a84635a68ddc574dcbdf94f2ca4ae98caf38d24174377c679cd69790",
          "transactionIndex": "0x4f",
          "logIndex": "0x85",
          "removed": false
        },
        {
          "address": "0xf4d3f52c75e6cb751fbbe7fde5d5f4d9ac97e2fe",
          "topics": [
            "0xddf252ad1be2c89b69c2b068fc378daa952ba7f163c4a11628f55a4df523b3ef",
            "0x0000000000000000000000000000000000000000000000000000000000000000",
            "0x0000000000000000000000000fc3d236a4e0609d83e6919dd3c1a0e2d0f2a176"
          ],
          "data": "0x00000000000000000000000000000000000000000000000003d5220b2dce773b",
          "blockHash": "0x596a7387216d5d850bfc60804c039f94c82568dce50537430d59d140b48bc35b",
          "blockNumber": "0x66eba9",
          "transactionHash": "0x8ae3fe63a84635a68ddc574dcbdf94f2ca4ae98caf38d24174377c679cd69790",
          "transactionIndex": "0x4f",
          "logIndex": "0x86",
          "removed": false
        },
        {
          "address": "0xc48a5096cca716c250359840f487f7722639b50c",
          "topics": [
            "0x8c5be1e5ebec7d5bd14f71427d1e84f3dd0314c0f7b2291e5b200ac8c7c3b925",
            "0x000000000000000000000000eba5864d192954d02fb0da889bd1bd60493d83f6",
            "0x000000000000000000000000c11602973aae4805787f1cd496081cb5cb32aad1"
          ],
          "data": "0x00000000000000000000000000000000000000000000000000853a0d2313c000",
          "blockHash": "0x596a7387216d5d850bfc60804c039f94c82568dce50537430d59d140b48bc35b",
          "blockNumber": "0x66eba9",
          "transactionHash": "0x8ae3fe63a84635a68ddc574dcbdf94f2ca4ae98caf38d24174377c679cd69790",
          "transactionIndex": "0x4f",
          "logIndex": "0x87",
          "removed": false
        },
        {
          "address": "0xc48a5096cca716c250359840f487f7722639b50c",
          "topics": [
            "0xddf252ad1be2c89b69c2b068fc378daa952ba7f163c4a11628f55a4df523b3ef",
            "0x000000000000000000000000eba5864d192954d02fb0da889bd1bd60493d83f6",
            "0x0000000000000000000000003ad5a756653f785f5aa3f34965b0494e1dd07789"
          ],
          "data": "0x000000000000000000000000000000000000000000000002b5e3af16b1880000",
          "blockHash": "0x596a7387216d5d850bfc60804c039f94c82568dce50537430d59d140b48bc35b",
          "blockNumber": "0x66eba9",
          "transactionHash": "0x8ae3fe63a84635a68ddc574dcbdf94f2ca4ae98caf38d24174377c679cd69790",
          "transactionIndex": "0x4f",
          "logIndex": "0x88",
          "removed": false
        },
        {
          "address": "0x3ad5a756653f785f5aa3f34965b0494e1dd07789",
          "topics": [
            "0x9bbe217b4113a0fc957e51f8db99c9989f520e3c6bcca7a8e12c6316eaf995bf"
          ],
          "data": "0x000000000000000000000000000000000000000000000002b5e3af16b1880000",
          "blockHash": "0x596a7387216d5d850bfc60804c039f94c82568dce50537430d59d140b48bc35b",
          "blockNumber": "0x66eba9",
          "transactionHash": "0x8ae3fe63a84635a68ddc574dcbdf94f2ca4ae98caf38d24174377c679cd69790",
          "transactionIndex": "0x4f",
          "logIndex": "0x89",
          "removed": false
        },
        {
          "address": "0xf4d3f52c75e6cb751fbbe7fde5d5f4d9ac97e2fe",
          "topics": [
            "0xddf252ad1be2c89b69c2b068fc378daa952ba7f163c4a11628f55a4df523b3ef",
            "0x0000000000000000000000000000000000000000000000000000000000000000",
            "0x000000000000000000000000eba5864d192954d02fb0da889bd1bd60493d83f6"
          ],
          "data": "0x00000000000000000000000000000000000000000000006c6b935b8bbd400000",
          "blockHash": "0x596a7387216d5d850bfc60804c039f94c82568dce50537430d59d140b48bc35b",
          "blockNumber": "0x66eba9",
          "transactionHash": "0x8ae3fe63a84635a68ddc574dcbdf94f2ca4ae98caf38d24174377c679cd69790",
          "transactionIndex": "0x4f",
          "logIndex": "0x8a",
          "removed": false
        },
        {
          "address": "0xc48a5096cca716c250359840f487f7722639b50c",
          "topics": [
            "0x8c5be1e5ebec7d5bd14f71427d1e84f3dd0314c0f7b2291e5b200ac8c7c3b925",
            "0x000000000000000000000000eba5864d192954d02fb0da889bd1bd60493d83f6",
            "0x000000000000000000000000c11602973aae4805787f1cd496081cb5cb32aad1"
          ],
          "data": "0x0000000000000000000000000000000000000000000000000000000000000000",
          "blockHash": "0x596a7387216d5d850bfc60804c039f94c82568dce50537430d59d140b48bc35b",
          "blockNumber": "0x66eba9",
          "transactionHash": "0x8ae3fe63a84635a68ddc574dcbdf94f2ca4ae98caf38d24174377c679cd69790",
          "transactionIndex": "0x4f",
          "logIndex": "0x8b",
          "removed": false
        },
        {
          "address": "0xc48a5096cca716c250359840f487f7722639b50c",
          "topics": [
            "0xddf252ad1be2c89b69c2b068fc378daa952ba7f163c4a11628f55a4df523b3ef",
            "0x000000000000000000000000eba5864d192954d02fb0da889bd1bd60493d83f6",
            "0x000000000000000000000000dc35ea1bd1d409cf7bdcda913a6c8226ae1ad200"
          ],
          "data": "0x00000000000000000000000000000000000000000000000000853a0d2313c000",
          "blockHash": "0x596a7387216d5d850bfc60804c039f94c82568dce50537430d59d140b48bc35b",
          "blockNumber": "0x66eba9",
          "transactionHash": "0x8ae3fe63a84635a68ddc574dcbdf94f2ca4ae98caf38d24174377c679cd69790",
          "transactionIndex": "0x4f",
          "logIndex": "0x8c",
          "removed": false
        },
        {
          "address": "0x742e363ed1cbe1dfbce40a81e2ca4a1abbea8524",
          "topics": [
            "0xddf252ad1be2c89b69c2b068fc378daa952ba7f163c4a11628f55a4df523b3ef",
            "0x0000000000000000000000000000000000000000000000000000000000000000",
            "0x0000000000000000000000000cb10c92e457f7caa2528031a7ebe541668b58ab",
            "0x7d204098646b3045580fd124c6fd8ce7bf554df9ca8c125bfe02fd5aad31e36d"
          ],
          "data": "0x",
          "blockHash": "0x596a7387216d5d850bfc60804c039f94c82568dce50537430d59d140b48bc35b",
          "blockNumber": "0x66eba9",
          "transactionHash": "0x8ae3fe63a84635a68ddc574dcbdf94f2ca4ae98caf38d24174377c679cd69790",
          "transactionIndex": "0x4f",
          "logIndex": "0x8d",
          "removed": false
        },
        {
          "address": "0x2cabfbe1144f955185d43bd6d2149bc3b626d923",
          "topics": [
            "0x0fba2673863b12c7b8463f3fa2f9b0cb1d534c573cdec5b5d895ee00d6ce6f5e",
            "0x7d204098646b3045580fd124c6fd8ce7bf554df9ca8c125bfe02fd5aad31e36d"
          ],
          "data": "0x00000000000000000000000000000000000000000000006c70e60ad427896cb6000000000000000000000000000000000000000000000002b5e3af16b1880000000000000000000000000000000000000000000000000002b5e3af16b1880000000000000000000000000000000000000000000000000000002386f26fc1000000000000000000000000000000000000000000000000000000000000000000000000000000000000000000000000000000000000000000000000000000000000",
          "blockHash": "0x596a7387216d5d850bfc60804c039f94c82568dce50537430d59d140b48bc35b",
          "blockNumber": "0x66eba9",
          "transactionHash": "0x8ae3fe63a84635a68ddc574dcbdf94f2ca4ae98caf38d24174377c679cd69790",
          "transactionIndex": "0x4f",
          "logIndex": "0x8e",
          "removed": false
        },
        {
          "address": "0x2cabfbe1144f955185d43bd6d2149bc3b626d923",
          "topics": [
            "0x962110f281c1213763cd97a546b337b3cbfd25a31ea9723e9d8b7376ba45da1a",
            "0x7d204098646b3045580fd124c6fd8ce7bf554df9ca8c125bfe02fd5aad31e36d"
          ],
          "data": "0x0000000000000000000000000000000000000000000000000000000000000000000000000000000000000000000000000000000000000000002386f26fc1000000000000000000000000000000000000000000000000000000000000000000000000000000000000000000000000000000000000000000000552af486a496cb600000000000000000000000000000000000000000000006c6b935b8bbd4000000000000000000000000000000000000000000000000000000000000000000000000000000000000000000000000000000000000000000002b5e3af16b1880000",
          "blockHash": "0x596a7387216d5d850bfc60804c039f94c82568dce50537430d59d140b48bc35b",
          "blockNumber": "0x66eba9",
          "transactionHash": "0x8ae3fe63a84635a68ddc574dcbdf94f2ca4ae98caf38d24174377c679cd69790",
          "transactionIndex": "0x4f",
          "logIndex": "0x8f",
          "removed": false
        }
      ],
      "logsBloom": "0x00008020000010000000100000000000000000000000000000000010010000000000000000000000020000000000000400000040100400000200000004a00000040000000000420000000008000000000010000400008000000000820000000000000000020020010000000080000810000000000000218000000010008000000200000400400000000000002000000000001000400000000000000800000000820000000000000000200000008000000000000401008000000000000000020000000002000000000000000000000000000001000040000000000000000020040010000200000000000000000000000001080008080000000000000000000000",
      "type": "0x2",
      "transactionHash": "0x8ae3fe63a84635a68ddc574dcbdf94f2ca4ae98caf38d24174377c679cd69790",
      "transactionIndex": "0x4f",
      "blockHash": "0x596a7387216d5d850bfc60804c039f94c82568dce50537430d59d140b48bc35b",
      "blockNumber": "0x66eba9",
      "gasUsed": "0xb58ea",
      "effectiveGasPrice": "0x6150ab769",
      "from": "0xeba5864d192954d02fb0da889bd1bd60493d83f6",
      "to": "0xc11602973aae4805787f1cd496081cb5cb32aad1",
      "contractAddress": null
    },
    {
      "status": "0x1",
      "cumulativeGasUsed": "0xa58846",
      "logs": [
        {
          "address": "0x742e363ed1cbe1dfbce40a81e2ca4a1abbea8524",
          "topics": [
            "0xddf252ad1be2c89b69c2b068fc378daa952ba7f163c4a11628f55a4df523b3ef",
            "0x0000000000000000000000000cb10c92e457f7caa2528031a7ebe541668b58ab",
            "0x000000000000000000000000eba5864d192954d02fb0da889bd1bd60493d83f6",
            "0x7d204098646b3045580fd124c6fd8ce7bf554df9ca8c125bfe02fd5aad31e36d"
          ],
          "data": "0x",
          "blockHash": "0x2624d74af3740c9580d2a78f8dbd7e759a2b3670f8dba42d01c3aa1d7121ff3e",
          "blockNumber": "0x66ebab",
          "transactionHash": "0x555fa1978b18d715b865e4d571821164d4f906b8a17ea03ebc386e09dc07336a",
          "transactionIndex": "0x72",
          "logIndex": "0x74",
          "removed": false
        }
      ],
      "logsBloom": "0x00000000000000000000000000000000000000000000000000000000010000000000000000000000000000000000000000000000000400000000000000000000000000000000000000000008000000000000000000008000000000020000000000000000000020000000000000000000000000000000010000000010000000000200000000000000000000002000000000001000000000000000000000000000000000000000000000000000000000000000000001000000000000000000000000000002000000000000000000000000000001000000000000000000000000040000000000000000000000000000000000000000000000000000000000000000",
      "type": "0x2",
      "transactionHash": "0x555fa1978b18d715b865e4d571821164d4f906b8a17ea03ebc386e09dc07336a",
      "transactionIndex": "0x72",
      "blockHash": "0x2624d74af3740c9580d2a78f8dbd7e759a2b3670f8dba42d01c3aa1d7121ff3e",
      "blockNumber": "0x66ebab",
      "gasUsed": "0xeeb4",
      "effectiveGasPrice": "0x5af3e6f1e",
      "from": "0xeba5864d192954d02fb0da889bd1bd60493d83f6",
      "to": "0x0cb10c92e457f7caa2528031a7ebe541668b58ab",
      "contractAddress": null
    }
  ],
  "libraries": [],
  "pending": [],
  "returns": {},
  "timestamp": 1727093009,
  "chain": 11155111,
  "commit": "f5cbe5a"
}