{
  "transactions": [
    {
      "hash": "0x6b96af2aba797a0b1f96ed2197cb85b92e98bce840fa9a1abd03947ea55da3cf",
      "transactionType": "CALL",
      "contractName": "WETHTester",
      "contractAddress": "0xc48a5096cca716c250359840f487f7722639b50c",
      "function": "tap()",
      "arguments": [],
      "transaction": {
        "from": "0xeba5864d192954d02fb0da889bd1bd60493d83f6",
        "to": "0xc48a5096cca716c250359840f487f7722639b50c",
        "gas": "0x12d7a",
        "value": "0x0",
        "input": "0xfd221031",
        "nonce": "0x153",
        "chainId": "0xaa36a7"
      },
      "additionalContracts": [],
      "isFixedGasLimit": false
    },
    {
      "hash": "0x75121bc93e45b729fd2117d62dae8f16979e293172b116d372f1a73f138a2eda",
      "transactionType": "CALL",
      "contractName": "WETHTester",
      "contractAddress": "0xc48a5096cca716c250359840f487f7722639b50c",
      "function": "approve(address,uint256)",
      "arguments": [
        "0xC11602973aAe4805787F1CD496081CB5Cb32AaD1",
        "50037500000000000000"
      ],
      "transaction": {
        "from": "0xeba5864d192954d02fb0da889bd1bd60493d83f6",
        "to": "0xc48a5096cca716c250359840f487f7722639b50c",
        "gas": "0xf9da",
        "value": "0x0",
        "input": "0x095ea7b3000000000000000000000000c11602973aae4805787f1cd496081cb5cb32aad1000000000000000000000000000000000000000000000002b668e923d49bc000",
        "nonce": "0x154",
        "chainId": "0xaa36a7"
      },
      "additionalContracts": [],
      "isFixedGasLimit": false
    },
    {
      "hash": "0x070a7a0c8e5ab1fa56dec000fd8827d5705aa9d59dbff898332f7379ab75093c",
      "transactionType": "CALL",
      "contractName": "WETHTester",
      "contractAddress": "0xc48a5096cca716c250359840f487f7722639b50c",
      "function": "approve(address,uint256)",
      "arguments": [
        "0xC11602973aAe4805787F1CD496081CB5Cb32AaD1",
        "50037500000000000000"
      ],
      "transaction": {
        "from": "0xeba5864d192954d02fb0da889bd1bd60493d83f6",
        "to": "0xc48a5096cca716c250359840f487f7722639b50c",
        "gas": "0x8e7b",
        "value": "0x0",
        "input": "0x095ea7b3000000000000000000000000c11602973aae4805787f1cd496081cb5cb32aad1000000000000000000000000000000000000000000000002b668e923d49bc000",
        "nonce": "0x155",
        "chainId": "0xaa36a7"
      },
      "additionalContracts": [],
      "isFixedGasLimit": false
    },
    {
      "hash": "0xb4d0c68dc0aebd3d29570e70a11caeba0aad5d75a23a41b4d09e6301595811b4",
      "transactionType": "CALL",
      "contractName": "BorrowerOperations",
      "contractAddress": "0xc11602973aae4805787f1cd496081cb5cb32aad1",
      "function": "openTrove(address,uint256,uint256,uint256,uint256,uint256,uint256,uint256,address,address,address)",
      "arguments": [
        "0xeba5864d192954D02FB0dA889bd1BD60493d83F6",
        "0",
        "50000000000000000000",
        "2000000000000000000000",
        "41140222631224883903522690406475356081322020172875599572147679120909667233543",
        "0",
        "10000000000000000",
        "115792089237316195423570985008687907853269984665640564039457584007913129639935",
        "0x0000000000000000000000000000000000000000",
        "0x0000000000000000000000000000000000000000",
        "0x0000000000000000000000000000000000000000"
      ],
      "transaction": {
        "from": "0xeba5864d192954d02fb0da889bd1bd60493d83f6",
        "to": "0xc11602973aae4805787f1cd496081cb5cb32aad1",
        "gas": "0xabd05",
        "value": "0x0",
        "input": "0x9cb90ba6000000000000000000000000eba5864d192954d02fb0da889bd1bd60493d83f60000000000000000000000000000000000000000000000000000000000000000000000000000000000000000000000000000000000000002b5e3af16b188000000000000000000000000000000000000000000000000006c6b935b8bbd4000005af48a743e6fb3215c14bf17843302b34be82cebfd94ac10c59d0f20bf2d6f070000000000000000000000000000000000000000000000000000000000000000000000000000000000000000000000000000000000000000002386f26fc10000ffffffffffffffffffffffffffffffffffffffffffffffffffffffffffffffff000000000000000000000000000000000000000000000000000000000000000000000000000000000000000000000000000000000000000000000000000000000000000000000000000000000000000000000000000000000000000000000000",
        "nonce": "0x156",
        "chainId": "0xaa36a7"
      },
      "additionalContracts": [],
      "isFixedGasLimit": false
    }
  ],
  "receipts": [
    {
      "status": "0x1",
      "cumulativeGasUsed": "0x782d19",
      "logs": [
        {
          "address": "0xc48a5096cca716c250359840f487f7722639b50c",
          "topics": [
            "0xddf252ad1be2c89b69c2b068fc378daa952ba7f163c4a11628f55a4df523b3ef",
            "0x0000000000000000000000000000000000000000000000000000000000000000",
            "0x000000000000000000000000eba5864d192954d02fb0da889bd1bd60493d83f6"
          ],
          "data": "0x0000000000000000000000000000000000000000000000056bc75e2d63100000",
          "blockHash": "0xaee928dd1603bbfbeed06c76a7480c3d44e04f8ed0ae89abd7d9c5fb0ba9be2a",
          "blockNumber": "0x66ebe5",
          "transactionHash": "0x6b96af2aba797a0b1f96ed2197cb85b92e98bce840fa9a1abd03947ea55da3cf",
          "transactionIndex": "0x45",
          "logIndex": "0x83",
          "removed": false
        }
      ],
      "logsBloom": "0x00000000000010000000000000000000000000000000000000000000000000000000000000000000000000000000000000000000000000000000000000000000000000000000000000000008000000000000000000000000000000000000000000000000020000000000000000000800000000000000000000000010000000000200000000000000000000000000000000000000000000000000000000000000000000000000000000000000000000000000000000000000000000000000000000000002000000000000000000000000000001000000000000000000000020040000000200000000000000000000000001000000000000000000000000000000",
      "type": "0x2",
      "transactionHash": "0x6b96af2aba797a0b1f96ed2197cb85b92e98bce840fa9a1abd03947ea55da3cf",
      "transactionIndex": "0x45",
      "blockHash": "0xaee928dd1603bbfbeed06c76a7480c3d44e04f8ed0ae89abd7d9c5fb0ba9be2a",
      "blockNumber": "0x66ebe5",
      "gasUsed": "0xda44",
      "effectiveGasPrice": "0xd53ad3dc1",
      "from": "0xeba5864d192954d02fb0da889bd1bd60493d83f6",
      "to": "0xc48a5096cca716c250359840f487f7722639b50c",
      "contractAddress": null
    },
    {
      "status": "0x1",
      "cumulativeGasUsed": "0x13bf4b4",
      "logs": [
        {
          "address": "0xc48a5096cca716c250359840f487f7722639b50c",
          "topics": [
            "0x8c5be1e5ebec7d5bd14f71427d1e84f3dd0314c0f7b2291e5b200ac8c7c3b925",
            "0x000000000000000000000000eba5864d192954d02fb0da889bd1bd60493d83f6",
            "0x000000000000000000000000c11602973aae4805787f1cd496081cb5cb32aad1"
          ],
          "data": "0x000000000000000000000000000000000000000000000002b668e923d49bc000",
          "blockHash": "0x7c1ce6e60f722496fbc8f852043ef017128c5f9d2fabdeab6f577545733916d5",
          "blockNumber": "0x66ebe6",
          "transactionHash": "0x75121bc93e45b729fd2117d62dae8f16979e293172b116d372f1a73f138a2eda",
          "transactionIndex": "0x66",
          "logIndex": "0xcf",
          "removed": false
        }
      ],
      "logsBloom": "0x00000000000010000000000000000000000000000000000000000000000000000000000000000000000000000000000000000000000000000000000000200000000000000000000000000000000000000000000000000000000000000000000000000000000000000000000080000000000000000000000000000000000000000200000000400000000000000000000000000000000000000000000000000000020000000000000000200000000000000000000000000000000000000000000000000000000000000000000000000000000001000000000000000000000000040010000200000000000000000000000001000000000000000000000000000000",
      "type": "0x2",
      "transactionHash": "0x75121bc93e45b729fd2117d62dae8f16979e293172b116d372f1a73f138a2eda",
      "transactionIndex": "0x66",
      "blockHash": "0x7c1ce6e60f722496fbc8f852043ef017128c5f9d2fabdeab6f577545733916d5",
      "blockNumber": "0x66ebe6",
      "gasUsed": "0xb4e4",
      "effectiveGasPrice": "0xcd4e830be",
      "from": "0xeba5864d192954d02fb0da889bd1bd60493d83f6",
      "to": "0xc48a5096cca716c250359840f487f7722639b50c",
      "contractAddress": null
    },
    {
      "status": "0x1",
      "cumulativeGasUsed": "0x14b3dfc",
      "logs": [
        {
          "address": "0xc48a5096cca716c250359840f487f7722639b50c",
          "topics": [
            "0x8c5be1e5ebec7d5bd14f71427d1e84f3dd0314c0f7b2291e5b200ac8c7c3b925",
            "0x000000000000000000000000eba5864d192954d02fb0da889bd1bd60493d83f6",
            "0x000000000000000000000000c11602973aae4805787f1cd496081cb5cb32aad1"
          ],
          "data": "0x000000000000000000000000000000000000000000000002b668e923d49bc000",
          "blockHash": "0xe3188a7aafa5fdc2becb8c15b449ce2e3a4ba53218f2b66cfc3dfac3f9ba30b5",
          "blockNumber": "0x66ebe7",
          "transactionHash": "0x070a7a0c8e5ab1fa56dec000fd8827d5705aa9d59dbff898332f7379ab75093c",
          "transactionIndex": "0x69",
          "logIndex": "0xb8",
          "removed": false
        }
      ],
      "logsBloom": "0x00000000000010000000000000000000000000000000000000000000000000000000000000000000000000000000000000000000000000000000000000200000000000000000000000000000000000000000000000000000000000000000000000000000000000000000000080000000000000000000000000000000000000000200000000400000000000000000000000000000000000000000000000000000020000000000000000200000000000000000000000000000000000000000000000000000000000000000000000000000000001000000000000000000000000040010000200000000000000000000000001000000000000000000000000000000",
      "type": "0x2",
      "transactionHash": "0x070a7a0c8e5ab1fa56dec000fd8827d5705aa9d59dbff898332f7379ab75093c",
      "transactionIndex": "0x69",
      "blockHash": "0xe3188a7aafa5fdc2becb8c15b449ce2e3a4ba53218f2b66cfc3dfac3f9ba30b5",
      "blockNumber": "0x66ebe7",
      "gasUsed": "0x6728",
      "effectiveGasPrice": "0xdc9079b29",
      "from": "0xeba5864d192954d02fb0da889bd1bd60493d83f6",
      "to": "0xc48a5096cca716c250359840f487f7722639b50c",
      "contractAddress": null
    },
    {
      "status": "0x1",
      "cumulativeGasUsed": "0x6e109f",
      "logs": [
        {
          "address": "0x3813e711ad6f6f5338e318849ce8a563b512e452",
          "topics": [
            "0x4d29de21de555af78a62fc82dd4bc05e9ae5b0660a37f04729527e0f22780cd3"
          ],
          "data": "0x00000000000000000000000000000000000000000000000ad78ebc5ac6200000",
          "blockHash": "0xfd21a7986b2d1dbff7de1e998ffe9a849e977b978b1d6c9e77e9a84f8d8b2c3d",
          "blockNumber": "0x66ebe8",
          "transactionHash": "0xb4d0c68dc0aebd3d29570e70a11caeba0aad5d75a23a41b4d09e6301595811b4",
          "transactionIndex": "0x2d",
          "logIndex": "0x36",
          "removed": false
        },
        {
          "address": "0xf4d3f52c75e6cb751fbbe7fde5d5f4d9ac97e2fe",
          "topics": [
            "0xddf252ad1be2c89b69c2b068fc378daa952ba7f163c4a11628f55a4df523b3ef",
            "0x0000000000000000000000000000000000000000000000000000000000000000",
            "0x0000000000000000000000000e446bc1509158383b1acc358d200b25bff13ce8"
          ],
          "data": "0x000000000000000000000000000000000000000000000000017e6652e293b323",
          "blockHash": "0xfd21a7986b2d1dbff7de1e998ffe9a849e977b978b1d6c9e77e9a84f8d8b2c3d",
          "blockNumber": "0x66ebe8",
          "transactionHash": "0xb4d0c68dc0aebd3d29570e70a11caeba0aad5d75a23a41b4d09e6301595811b4",
          "transactionIndex": "0x2d",
          "logIndex": "0x37",
          "removed": false
        },
        {
          "address": "0xf4d3f52c75e6cb751fbbe7fde5d5f4d9ac97e2fe",
          "topics": [
            "0xddf252ad1be2c89b69c2b068fc378daa952ba7f163c4a11628f55a4df523b3ef",
            "0x0000000000000000000000000000000000000000000000000000000000000000",
            "0x0000000000000000000000000fc3d236a4e0609d83e6919dd3c1a0e2d0f2a176"
          ],
          "data": "0x00000000000000000000000000000000000000000000000003d75042d8e9837e",
          "blockHash": "0xfd21a7986b2d1dbff7de1e998ffe9a849e977b978b1d6c9e77e9a84f8d8b2c3d",
          "blockNumber": "0x66ebe8",
          "transactionHash": "0xb4d0c68dc0aebd3d29570e70a11caeba0aad5d75a23a41b4d09e6301595811b4",
          "transactionIndex": "0x2d",
          "logIndex": "0x38",
          "removed": false
        },
        {
          "address": "0xc48a5096cca716c250359840f487f7722639b50c",
          "topics": [
            "0x8c5be1e5ebec7d5bd14f71427d1e84f3dd0314c0f7b2291e5b200ac8c7c3b925",
            "0x000000000000000000000000eba5864d192954d02fb0da889bd1bd60493d83f6",
            "0x000000000000000000000000c11602973aae4805787f1cd496081cb5cb32aad1"
          ],
          "data": "0x00000000000000000000000000000000000000000000000000853a0d2313c000",
          "blockHash": "0xfd21a7986b2d1dbff7de1e998ffe9a849e977b978b1d6c9e77e9a84f8d8b2c3d",
          "blockNumber": "0x66ebe8",
          "transactionHash": "0xb4d0c68dc0aebd3d29570e70a11caeba0aad5d75a23a41b4d09e6301595811b4",
          "transactionIndex": "0x2d",
          "logIndex": "0x39",
          "removed": false
        },
        {
          "address": "0xc48a5096cca716c250359840f487f7722639b50c",
          "topics": [
            "0xddf252ad1be2c89b69c2b068fc378daa952ba7f163c4a11628f55a4df523b3ef",
            "0x000000000000000000000000eba5864d192954d02fb0da889bd1bd60493d83f6",
            "0x0000000000000000000000003ad5a756653f785f5aa3f34965b0494e1dd07789"
          ],
          "data": "0x000000000000000000000000000000000000000000000002b5e3af16b1880000",
          "blockHash": "0xfd21a7986b2d1dbff7de1e998ffe9a849e977b978b1d6c9e77e9a84f8d8b2c3d",
          "blockNumber": "0x66ebe8",
          "transactionHash": "0xb4d0c68dc0aebd3d29570e70a11caeba0aad5d75a23a41b4d09e6301595811b4",
          "transactionIndex": "0x2d",
          "logIndex": "0x3a",
          "removed": false
        },
        {
          "address": "0x3ad5a756653f785f5aa3f34965b0494e1dd07789",
          "topics": [
            "0x9bbe217b4113a0fc957e51f8db99c9989f520e3c6bcca7a8e12c6316eaf995bf"
          ],
          "data": "0x00000000000000000000000000000000000000000000000821ab0d4414980000",
          "blockHash": "0xfd21a7986b2d1dbff7de1e998ffe9a849e977b978b1d6c9e77e9a84f8d8b2c3d",
          "blockNumber": "0x66ebe8",
          "transactionHash": "0xb4d0c68dc0aebd3d29570e70a11caeba0aad5d75a23a41b4d09e6301595811b4",
          "transactionIndex": "0x2d",
          "logIndex": "0x3b",
          "removed": false
        },
        {
          "address": "0xf4d3f52c75e6cb751fbbe7fde5d5f4d9ac97e2fe",
          "topics": [
            "0xddf252ad1be2c89b69c2b068fc378daa952ba7f163c4a11628f55a4df523b3ef",
            "0x0000000000000000000000000000000000000000000000000000000000000000",
            "0x000000000000000000000000eba5864d192954d02fb0da889bd1bd60493d83f6"
          ],
          "data": "0x00000000000000000000000000000000000000000000006c6b935b8bbd400000",
          "blockHash": "0xfd21a7986b2d1dbff7de1e998ffe9a849e977b978b1d6c9e77e9a84f8d8b2c3d",
          "blockNumber": "0x66ebe8",
          "transactionHash": "0xb4d0c68dc0aebd3d29570e70a11caeba0aad5d75a23a41b4d09e6301595811b4",
          "transactionIndex": "0x2d",
          "logIndex": "0x3c",
          "removed": false
        },
        {
          "address": "0xc48a5096cca716c250359840f487f7722639b50c",
          "topics": [
            "0x8c5be1e5ebec7d5bd14f71427d1e84f3dd0314c0f7b2291e5b200ac8c7c3b925",
            "0x000000000000000000000000eba5864d192954d02fb0da889bd1bd60493d83f6",
            "0x000000000000000000000000c11602973aae4805787f1cd496081cb5cb32aad1"
          ],
          "data": "0x0000000000000000000000000000000000000000000000000000000000000000",
          "blockHash": "0xfd21a7986b2d1dbff7de1e998ffe9a849e977b978b1d6c9e77e9a84f8d8b2c3d",
          "blockNumber": "0x66ebe8",
          "transactionHash": "0xb4d0c68dc0aebd3d29570e70a11caeba0aad5d75a23a41b4d09e6301595811b4",
          "transactionIndex": "0x2d",
          "logIndex": "0x3d",
          "removed": false
        },
        {
          "address": "0xc48a5096cca716c250359840f487f7722639b50c",
          "topics": [
            "0xddf252ad1be2c89b69c2b068fc378daa952ba7f163c4a11628f55a4df523b3ef",
            "0x000000000000000000000000eba5864d192954d02fb0da889bd1bd60493d83f6",
            "0x000000000000000000000000dc35ea1bd1d409cf7bdcda913a6c8226ae1ad200"
          ],
          "data": "0x00000000000000000000000000000000000000000000000000853a0d2313c000",
          "blockHash": "0xfd21a7986b2d1dbff7de1e998ffe9a849e977b978b1d6c9e77e9a84f8d8b2c3d",
          "blockNumber": "0x66ebe8",
          "transactionHash": "0xb4d0c68dc0aebd3d29570e70a11caeba0aad5d75a23a41b4d09e6301595811b4",
          "transactionIndex": "0x2d",
          "logIndex": "0x3e",
          "removed": false
        },
        {
          "address": "0x742e363ed1cbe1dfbce40a81e2ca4a1abbea8524",
          "topics": [
            "0xddf252ad1be2c89b69c2b068fc378daa952ba7f163c4a11628f55a4df523b3ef",
            "0x0000000000000000000000000000000000000000000000000000000000000000",
            "0x000000000000000000000000eba5864d192954d02fb0da889bd1bd60493d83f6",
            "0x33622e5c4a9b486a61dcadc09919fdc89a03e2ce0efe4aeea06c8013376319c5"
          ],
          "data": "0x",
          "blockHash": "0xfd21a7986b2d1dbff7de1e998ffe9a849e977b978b1d6c9e77e9a84f8d8b2c3d",
          "blockNumber": "0x66ebe8",
          "transactionHash": "0xb4d0c68dc0aebd3d29570e70a11caeba0aad5d75a23a41b4d09e6301595811b4",
          "transactionIndex": "0x2d",
          "logIndex": "0x3f",
          "removed": false
        },
        {
          "address": "0x2cabfbe1144f955185d43bd6d2149bc3b626d923",
          "topics": [
            "0x0fba2673863b12c7b8463f3fa2f9b0cb1d534c573cdec5b5d895ee00d6ce6f5e",
            "0x33622e5c4a9b486a61dcadc09919fdc89a03e2ce0efe4aeea06c8013376319c5"
          ],
          "data": "0x00000000000000000000000000000000000000000000006c70e60ac4118d72c6000000000000000000000000000000000000000000000002b5e3af16b1880000000000000000000000000000000000000000000000000002b5e3af16b1880000000000000000000000000000000000000000000000000000002386f26fc1000000000000000000000000000000000000000000000000000000000000000000000000000000000000000000000000000000000000000000000000000000000000",
          "blockHash": "0xfd21a7986b2d1dbff7de1e998ffe9a849e977b978b1d6c9e77e9a84f8d8b2c3d",
          "blockNumber": "0x66ebe8",
          "transactionHash": "0xb4d0c68dc0aebd3d29570e70a11caeba0aad5d75a23a41b4d09e6301595811b4",
          "transactionIndex": "0x2d",
          "logIndex": "0x40",
          "removed": false
        },
        {
          "address": "0x2cabfbe1144f955185d43bd6d2149bc3b626d923",
          "topics": [
            "0x962110f281c1213763cd97a546b337b3cbfd25a31ea9723e9d8b7376ba45da1a",
            "0x33622e5c4a9b486a61dcadc09919fdc89a03e2ce0efe4aeea06c8013376319c5"
          ],
          "data": "0x0000000000000000000000000000000000000000000000000000000000000000000000000000000000000000000000000000000000000000002386f26fc1000000000000000000000000000000000000000000000000000000000000000000000000000000000000000000000000000000000000000000000552af38544d72c600000000000000000000000000000000000000000000006c6b935b8bbd4000000000000000000000000000000000000000000000000000000000000000000000000000000000000000000000000000000000000000000002b5e3af16b1880000",
          "blockHash": "0xfd21a7986b2d1dbff7de1e998ffe9a849e977b978b1d6c9e77e9a84f8d8b2c3d",
          "blockNumber": "0x66ebe8",
          "transactionHash": "0xb4d0c68dc0aebd3d29570e70a11caeba0aad5d75a23a41b4d09e6301595811b4",
          "transactionIndex": "0x2d",
          "logIndex": "0x41",
          "removed": false
        }
      ],
      "logsBloom": "0x00008020000010000000100000000000000000000000000000000010000000000000000000000000020000000000000400000040100000000200000004a00000040000000000420000000008000000000010000400000000000000800000000000000000020020010000000080000810000000000000208000000010008000000200000400400000000000000000000000001000400000080000000800000000820000000000000000200000008000000000000401008000000000000000020000000002010000000000000000000000000001100040000000000000000020040010000200000000000000000000000001080008080000000000000000000000",
      "type": "0x2",
      "transactionHash": "0xb4d0c68dc0aebd3d29570e70a11caeba0aad5d75a23a41b4d09e6301595811b4",
      "transactionIndex": "0x2d",
      "blockHash": "0xfd21a7986b2d1dbff7de1e998ffe9a849e977b978b1d6c9e77e9a84f8d8b2c3d",
      "blockNumber": "0x66ebe8",
      "gasUsed": "0x7c63f",
      "effectiveGasPrice": "0xecdbb9afe",
      "from": "0xeba5864d192954d02fb0da889bd1bd60493d83f6",
      "to": "0xc11602973aae4805787f1cd496081cb5cb32aad1",
      "contractAddress": null
    }
  ],
  "libraries": [],
  "pending": [],
  "returns": {},
  "timestamp": 1727094018,
  "chain": 11155111,
  "commit": "f5cbe5a"
}