{
  "transactions": [
    {
      "hash": "0x7238ccdbc91d1e00769ade446ea3373bce7264493adcbaab0b6e89a86b12fbe9",
      "transactionType": "CALL",
      "contractName": "BorrowerOperations",
      "contractAddress": "0x280837c9be899bd72bebb00e5e517d62cfdf9063",
      "function": "registerBatchManager(uint128,uint128,uint128,uint128,uint128)",
      "arguments": [
        "5000000000000000",
        "1000000000000000000",
        "25000000000000000",
        "1000000000000000",
        "1"
      ],
      "transaction": {
        "from": "0xeba5864d192954d02fb0da889bd1bd60493d83f6",
        "to": "0x280837c9be899bd72bebb00e5e517d62cfdf9063",
        "gas": "0x40d0a",
        "value": "0x0",
        "input": "0xbcb266c00000000000000000000000000000000000000000000000000011c37937e080000000000000000000000000000000000000000000000000000de0b6b3a76400000000000000000000000000000000000000000000000000000058d15e1762800000000000000000000000000000000000000000000000000000038d7ea4c680000000000000000000000000000000000000000000000000000000000000000001",
        "nonce": "0x157",
        "chainId": "0xaa36a7"
      },
      "additionalContracts": [],
      "isFixedGasLimit": false
    },
    {
      "hash": "0x30d08641b7a826d2765bb7f1eb01a7b704117c5773842aa4cf7a02d7d9ec6250",
      "transactionType": "CALL",
      "contractName": "ERC20Faucet",
      "contractAddress": "0x3c97420016cd16e8fa7aa3b253c380693172509a",
      "function": "tap()",
      "arguments": [],
      "transaction": {
        "from": "0xeba5864d192954d02fb0da889bd1bd60493d83f6",
        "to": "0x3c97420016cd16e8fa7aa3b253c380693172509a",
        "gas": "0x1e5e2",
        "value": "0x0",
        "input": "0xfd221031",
        "nonce": "0x158",
        "chainId": "0xaa36a7"
      },
      "additionalContracts": [],
      "isFixedGasLimit": false
    },
    {
      "hash": "0x84713e8b2b759c06bdd53489b114baee9f2baa275e8803de77fbb4d96c1b99fa",
      "transactionType": "CALL",
      "contractName": "ERC20Faucet",
      "contractAddress": "0x3c97420016cd16e8fa7aa3b253c380693172509a",
      "function": "approve(address,uint256)",
      "arguments": [
        "0x280837C9bE899BD72BEBb00e5E517d62Cfdf9063",
        "50000000000000000000"
      ],
      "transaction": {
        "from": "0xeba5864d192954d02fb0da889bd1bd60493d83f6",
        "to": "0x3c97420016cd16e8fa7aa3b253c380693172509a",
        "gas": "0xf9c8",
        "value": "0x0",
        "input": "0x095ea7b3000000000000000000000000280837c9be899bd72bebb00e5e517d62cfdf9063000000000000000000000000000000000000000000000002b5e3af16b1880000",
        "nonce": "0x159",
        "chainId": "0xaa36a7"
      },
      "additionalContracts": [],
      "isFixedGasLimit": false
    },
    {
      "hash": "0x065f2d3f1766627166cc48f3c64bf912a987ffc9e8551028783caade62cfbc7c",
      "transactionType": "CALL",
      "contractName": "WETHTester",
      "contractAddress": "0xc48a5096cca716c250359840f487f7722639b50c",
      "function": "approve(address,uint256)",
      "arguments": [
        "0x280837C9bE899BD72BEBb00e5E517d62Cfdf9063",
        "37500000000000000"
      ],
      "transaction": {
        "from": "0xeba5864d192954d02fb0da889bd1bd60493d83f6",
        "to": "0xc48a5096cca716c250359840f487f7722639b50c",
        "gas": "0xf9b8",
        "value": "0x0",
        "input": "0x095ea7b3000000000000000000000000280837c9be899bd72bebb00e5e517d62cfdf906300000000000000000000000000000000000000000000000000853a0d2313c000",
        "nonce": "0x15a",
        "chainId": "0xaa36a7"
      },
      "additionalContracts": [],
      "isFixedGasLimit": false
    },
    {
      "hash": "0x8fb96b9219e02cce43879459d2eb15ac6adaf56337063d0450430ef06fb88d0d",
      "transactionType": "CALL",
      "contractName": "BorrowerOperations",
      "contractAddress": "0x280837c9be899bd72bebb00e5e517d62cfdf9063",
      "function": "openTrove(address,uint256,uint256,uint256,uint256,uint256,uint256,uint256,address,address,address)",
      "arguments": [
        "0xeba5864d192954D02FB0dA889bd1BD60493d83F6",
        "0",
        "50000000000000000000",
        "2000000000000000000000",
        "0",
        "0",
        "20000000000000000",
        "115792089237316195423570985008687907853269984665640564039457584007913129639935",
        "0x0000000000000000000000000000000000000000",
        "0x0000000000000000000000000000000000000000",
        "0x0000000000000000000000000000000000000000"
      ],
      "transaction": {
        "from": "0xeba5864d192954d02fb0da889bd1bd60493d83f6",
        "to": "0x280837c9be899bd72bebb00e5e517d62cfdf9063",
        "gas": "0xf1b44",
        "value": "0x0",
        "input": "0x9cb90ba6000000000000000000000000eba5864d192954d02fb0da889bd1bd60493d83f60000000000000000000000000000000000000000000000000000000000000000000000000000000000000000000000000000000000000002b5e3af16b188000000000000000000000000000000000000000000000000006c6b935b8bbd4000000000000000000000000000000000000000000000000000000000000000000000000000000000000000000000000000000000000000000000000000000000000000000000000000000000000000000000000000000000000000470de4df820000ffffffffffffffffffffffffffffffffffffffffffffffffffffffffffffffff000000000000000000000000000000000000000000000000000000000000000000000000000000000000000000000000000000000000000000000000000000000000000000000000000000000000000000000000000000000000000000000000",
        "nonce": "0x15b",
        "chainId": "0xaa36a7"
      },
      "additionalContracts": [],
      "isFixedGasLimit": false
    }
  ],
  "receipts": [
    {
      "status": "0x1",
      "cumulativeGasUsed": "0x7ecad0",
      "logs": [
        {
          "address": "0x496896ac162ed4bc255c8e0db653a8d77374fb6e",
          "topics": [
            "0xecf6daab6f1facdfdd8dfe32b525744d8a7a940824dd52e2b53c24028ee5faa0",
            "0x000000000000000000000000eba5864d192954d02fb0da889bd1bd60493d83f6"
          ],
          "data": "0x0000000000000000000000000000000000000000000000000000000000000000000000000000000000000000000000000000000000000000000000000000000000000000000000000000000000000000000000000000000000000000000000000000000000000000000000000000000000000000000000000058d15e1762800000000000000000000000000000000000000000000000000000038d7ea4c6800000000000000000000000000000000000000000000000000000000000000000000000000000000000000000000000000000000000000000000000000000000000",
          "blockHash": "0x7b84f03d0d7abe510f9777f5133888cdad84b662cb137a0d90c9bd20d31d8055",
          "blockNumber": "0x66ee57",
          "transactionHash": "0x7238ccdbc91d1e00769ade446ea3373bce7264493adcbaab0b6e89a86b12fbe9",
          "transactionIndex": "0x48",
          "logIndex": "0x65",
          "removed": false
        }
      ],
      "logsBloom": "0x00000000000000000000000000000000000000000000000000000000000000000000000000000000000000000000000000000000000000000000000000000000000000001000000000000000000000000000000000000000000000000000000000000000000000000010000000000000000000000000000000000000000000000200000000000000000000000000000000080000000000000000000000000000000000008000000000000000000000000000000000000000000000000000000000000000000000000000000000000000000001000000000000000000000000040000000001000000000000000000000002000000000000000000000000000000",
      "type": "0x2",
      "transactionHash": "0x7238ccdbc91d1e00769ade446ea3373bce7264493adcbaab0b6e89a86b12fbe9",
      "transactionIndex": "0x48",
      "blockHash": "0x7b84f03d0d7abe510f9777f5133888cdad84b662cb137a0d90c9bd20d31d8055",
      "blockNumber": "0x66ee57",
      "gasUsed": "0x2eecd",
      "effectiveGasPrice": "0x5da37c50a",
      "from": "0xeba5864d192954d02fb0da889bd1bd60493d83f6",
      "to": "0x280837c9be899bd72bebb00e5e517d62cfdf9063",
      "contractAddress": null
    },
    {
      "status": "0x1",
      "cumulativeGasUsed": "0x6f50a7",
      "logs": [
        {
          "address": "0x3c97420016cd16e8fa7aa3b253c380693172509a",
          "topics": [
            "0xddf252ad1be2c89b69c2b068fc378daa952ba7f163c4a11628f55a4df523b3ef",
            "0x0000000000000000000000000000000000000000000000000000000000000000",
            "0x000000000000000000000000eba5864d192954d02fb0da889bd1bd60493d83f6"
          ],
          "data": "0x0000000000000000000000000000000000000000000000056bc75e2d63100000",
          "blockHash": "0x2276c893b16c3cc43aca4998a8b87cf7d782fe8f486d90363a7407ac96822f51",
          "blockNumber": "0x66ee58",
          "transactionHash": "0x30d08641b7a826d2765bb7f1eb01a7b704117c5773842aa4cf7a02d7d9ec6250",
          "transactionIndex": "0x31",
          "logIndex": "0x3e",
          "removed": false
        }
      ],
      "logsBloom": "0x00000000000000000000000000000000000000000000000000000000000000000000000000000000000000000000000000000000000000000000000000000000000000000000000000000008000000000000000000000000000000000001000000000000020000000000000000000800000000000000000000001010000000000200000000000000000000000000000020000000000000000000000000000000000000000000000000000000000000000000000000000000000000000000000000000002000000000000000000000000000001000000000000000000000020040000000000000000000000000000000000000000000000000000000000000000",
      "type": "0x2",
      "transactionHash": "0x30d08641b7a826d2765bb7f1eb01a7b704117c5773842aa4cf7a02d7d9ec6250",
      "transactionIndex": "0x31",
      "blockHash": "0x2276c893b16c3cc43aca4998a8b87cf7d782fe8f486d90363a7407ac96822f51",
      "blockNumber": "0x66ee58",
      "gasUsed": "0x15fc6",
      "effectiveGasPrice": "0x5b16881bb",
      "from": "0xeba5864d192954d02fb0da889bd1bd60493d83f6",
      "to": "0x3c97420016cd16e8fa7aa3b253c380693172509a",
      "contractAddress": null
    },
    {
      "status": "0x1",
      "cumulativeGasUsed": "0xac0068",
      "logs": [
        {
          "address": "0x3c97420016cd16e8fa7aa3b253c380693172509a",
          "topics": [
            "0x8c5be1e5ebec7d5bd14f71427d1e84f3dd0314c0f7b2291e5b200ac8c7c3b925",
            "0x000000000000000000000000eba5864d192954d02fb0da889bd1bd60493d83f6",
            "0x000000000000000000000000280837c9be899bd72bebb00e5e517d62cfdf9063"
          ],
          "data": "0x000000000000000000000000000000000000000000000002b5e3af16b1880000",
          "blockHash": "0xa91c760044dfe268a6bf7c891e5f85ab64758c70f0d76731ad1f1f25e71268d4",
          "blockNumber": "0x66ee59",
          "transactionHash": "0x84713e8b2b759c06bdd53489b114baee9f2baa275e8803de77fbb4d96c1b99fa",
          "transactionIndex": "0x75",
          "logIndex": "0xba",
          "removed": false
        }
      ],
      "logsBloom": "0x00000000000000000000000000000000000000000000000000000000000000000000000000000000000000000000000000000000200000000000000000200000000000000000000000000000000000000000000000000000000000000001000000000000000000000000000000000000000000000000000000001000000000000200000000000000000000000000020020000000000000000000000000000000020000000000000000000000000000000000000000000000000000000000000020000000000000000000000000000000000001000000000000000000000000040010000000000000000000000000000000000000000000000000000000000000",
      "type": "0x2",
      "transactionHash": "0x84713e8b2b759c06bdd53489b114baee9f2baa275e8803de77fbb4d96c1b99fa",
      "transactionIndex": "0x75",
      "blockHash": "0xa91c760044dfe268a6bf7c891e5f85ab64758c70f0d76731ad1f1f25e71268d4",
      "blockNumber": "0x66ee59",
      "gasUsed": "0xb4d7",
      "effectiveGasPrice": "0x582300f25",
      "from": "0xeba5864d192954d02fb0da889bd1bd60493d83f6",
      "to": "0x3c97420016cd16e8fa7aa3b253c380693172509a",
      "contractAddress": null
    },
    {
      "status": "0x1",
      "cumulativeGasUsed": "0xa88c6e",
      "logs": [
        {
          "address": "0xc48a5096cca716c250359840f487f7722639b50c",
          "topics": [
            "0x8c5be1e5ebec7d5bd14f71427d1e84f3dd0314c0f7b2291e5b200ac8c7c3b925",
            "0x000000000000000000000000eba5864d192954d02fb0da889bd1bd60493d83f6",
            "0x000000000000000000000000280837c9be899bd72bebb00e5e517d62cfdf9063"
          ],
          "data": "0x00000000000000000000000000000000000000000000000000853a0d2313c000",
          "blockHash": "0x54c4f65d196d546ebdc6b69a9aa801c3b0371a59deb94e948ed61cf122a291ca",
          "blockNumber": "0x66ee5a",
          "transactionHash": "0x065f2d3f1766627166cc48f3c64bf912a987ffc9e8551028783caade62cfbc7c",
          "transactionIndex": "0x4e",
          "logIndex": "0x9a",
          "removed": false
        }
      ],
      "logsBloom": "0x00000000000010000000000000000000000000000000000000000000000000000000000000000000000000000000000000000000200000000000000000200000000000000000000000000000000000000000000000000000000000000000000000000000000000000000000000000000000000000000000000000000000000000200000000000000000000000000020000000000000000000000000000000000020000000000000000000000000000000000000000000000000000000000000020000000000000000000000000000000000001000000000000000000000000040010000200000000000000000000000001000000000000000000000000000000",
      "type": "0x2",
      "transactionHash": "0x065f2d3f1766627166cc48f3c64bf912a987ffc9e8551028783caade62cfbc7c",
      "transactionIndex": "0x4e",
      "blockHash": "0x54c4f65d196d546ebdc6b69a9aa801c3b0371a59deb94e948ed61cf122a291ca",
      "blockNumber": "0x66ee5a",
      "gasUsed": "0xb4cc",
      "effectiveGasPrice": "0x577e2c916",
      "from": "0xeba5864d192954d02fb0da889bd1bd60493d83f6",
      "to": "0xc48a5096cca716c250359840f487f7722639b50c",
      "contractAddress": null
    },
    {
      "status": "0x1",
      "cumulativeGasUsed": "0xb8b915",
      "logs": [
        {
          "address": "0x4205b39e099035f45de2f1c418a2ea5148404d5d",
          "topics": [
            "0x4d29de21de555af78a62fc82dd4bc05e9ae5b0660a37f04729527e0f22780cd3"
          ],
          "data": "0x00000000000000000000000000000000000000000000000ad78ebc5ac6200000",
          "blockHash": "0x1247e6324079ec6f4991a20efda8d088a5c03cdc536143f56fbc749c6a9b1579",
          "blockNumber": "0x66ee5b",
          "transactionHash": "0x8fb96b9219e02cce43879459d2eb15ac6adaf56337063d0450430ef06fb88d0d",
          "transactionIndex": "0x55",
          "logIndex": "0x7c",
          "removed": false
        },
        {
          "address": "0xf4d3f52c75e6cb751fbbe7fde5d5f4d9ac97e2fe",
          "topics": [
            "0xddf252ad1be2c89b69c2b068fc378daa952ba7f163c4a11628f55a4df523b3ef",
            "0x0000000000000000000000000000000000000000000000000000000000000000",
            "0x0000000000000000000000006c872a1adc19e47be17f982b5873d47ecba482dd"
          ],
          "data": "0x00000000000000000000000000000000000000000000000002fb1a7a78f5eaf6",
          "blockHash": "0x1247e6324079ec6f4991a20efda8d088a5c03cdc536143f56fbc749c6a9b1579",
          "blockNumber": "0x66ee5b",
          "transactionHash": "0x8fb96b9219e02cce43879459d2eb15ac6adaf56337063d0450430ef06fb88d0d",
          "transactionIndex": "0x55",
          "logIndex": "0x7d",
          "removed": false
        },
        {
          "address": "0xf4d3f52c75e6cb751fbbe7fde5d5f4d9ac97e2fe",
          "topics": [
            "0xddf252ad1be2c89b69c2b068fc378daa952ba7f163c4a11628f55a4df523b3ef",
            "0x0000000000000000000000000000000000000000000000000000000000000000",
            "0x00000000000000000000000009127b6464e08850080832c46948cb14849bcb24"
          ],
          "data": "0x00000000000000000000000000000000000000000000000007aa44165b9cee76",
          "blockHash": "0x1247e6324079ec6f4991a20efda8d088a5c03cdc536143f56fbc749c6a9b1579",
          "blockNumber": "0x66ee5b",
          "transactionHash": "0x8fb96b9219e02cce43879459d2eb15ac6adaf56337063d0450430ef06fb88d0d",
          "transactionIndex": "0x55",
          "logIndex": "0x7e",
          "removed": false
        },
        {
          "address": "0x3c97420016cd16e8fa7aa3b253c380693172509a",
          "topics": [
            "0x8c5be1e5ebec7d5bd14f71427d1e84f3dd0314c0f7b2291e5b200ac8c7c3b925",
            "0x000000000000000000000000eba5864d192954d02fb0da889bd1bd60493d83f6",
            "0x000000000000000000000000280837c9be899bd72bebb00e5e517d62cfdf9063"
          ],
          "data": "0x0000000000000000000000000000000000000000000000000000000000000000",
          "blockHash": "0x1247e6324079ec6f4991a20efda8d088a5c03cdc536143f56fbc749c6a9b1579",
          "blockNumber": "0x66ee5b",
          "transactionHash": "0x8fb96b9219e02cce43879459d2eb15ac6adaf56337063d0450430ef06fb88d0d",
          "transactionIndex": "0x55",
          "logIndex": "0x7f",
          "removed": false
        },
        {
          "address": "0x3c97420016cd16e8fa7aa3b253c380693172509a",
          "topics": [
            "0xddf252ad1be2c89b69c2b068fc378daa952ba7f163c4a11628f55a4df523b3ef",
            "0x000000000000000000000000eba5864d192954d02fb0da889bd1bd60493d83f6",
            "0x000000000000000000000000f05840416869419791e843bae5c25b6d2895c365"
          ],
          "data": "0x000000000000000000000000000000000000000000000002b5e3af16b1880000",
          "blockHash": "0x1247e6324079ec6f4991a20efda8d088a5c03cdc536143f56fbc749c6a9b1579",
          "blockNumber": "0x66ee5b",
          "transactionHash": "0x8fb96b9219e02cce43879459d2eb15ac6adaf56337063d0450430ef06fb88d0d",
          "transactionIndex": "0x55",
          "logIndex": "0x80",
          "removed": false
        },
        {
          "address": "0xf05840416869419791e843bae5c25b6d2895c365",
          "topics": [
            "0x9bbe217b4113a0fc957e51f8db99c9989f520e3c6bcca7a8e12c6316eaf995bf"
          ],
          "data": "0x000000000000000000000000000000000000000000000002b5e3af16b1880000",
          "blockHash": "0x1247e6324079ec6f4991a20efda8d088a5c03cdc536143f56fbc749c6a9b1579",
          "blockNumber": "0x66ee5b",
          "transactionHash": "0x8fb96b9219e02cce43879459d2eb15ac6adaf56337063d0450430ef06fb88d0d",
          "transactionIndex": "0x55",
          "logIndex": "0x81",
          "removed": false
        },
        {
          "address": "0xf4d3f52c75e6cb751fbbe7fde5d5f4d9ac97e2fe",
          "topics": [
            "0xddf252ad1be2c89b69c2b068fc378daa952ba7f163c4a11628f55a4df523b3ef",
            "0x0000000000000000000000000000000000000000000000000000000000000000",
            "0x000000000000000000000000eba5864d192954d02fb0da889bd1bd60493d83f6"
          ],
          "data": "0x00000000000000000000000000000000000000000000006c6b935b8bbd400000",
          "blockHash": "0x1247e6324079ec6f4991a20efda8d088a5c03cdc536143f56fbc749c6a9b1579",
          "blockNumber": "0x66ee5b",
          "transactionHash": "0x8fb96b9219e02cce43879459d2eb15ac6adaf56337063d0450430ef06fb88d0d",
          "transactionIndex": "0x55",
          "logIndex": "0x82",
          "removed": false
        },
        {
          "address": "0xc48a5096cca716c250359840f487f7722639b50c",
          "topics": [
            "0x8c5be1e5ebec7d5bd14f71427d1e84f3dd0314c0f7b2291e5b200ac8c7c3b925",
            "0x000000000000000000000000eba5864d192954d02fb0da889bd1bd60493d83f6",
            "0x000000000000000000000000280837c9be899bd72bebb00e5e517d62cfdf9063"
          ],
          "data": "0x0000000000000000000000000000000000000000000000000000000000000000",
          "blockHash": "0x1247e6324079ec6f4991a20efda8d088a5c03cdc536143f56fbc749c6a9b1579",
          "blockNumber": "0x66ee5b",
          "transactionHash": "0x8fb96b9219e02cce43879459d2eb15ac6adaf56337063d0450430ef06fb88d0d",
          "transactionIndex": "0x55",
          "logIndex": "0x83",
          "removed": false
        },
        {
          "address": "0xc48a5096cca716c250359840f487f7722639b50c",
          "topics": [
            "0xddf252ad1be2c89b69c2b068fc378daa952ba7f163c4a11628f55a4df523b3ef",
            "0x000000000000000000000000eba5864d192954d02fb0da889bd1bd60493d83f6",
            "0x000000000000000000000000027b46b258d5867c307b2e916de9b198862a4033"
          ],
          "data": "0x00000000000000000000000000000000000000000000000000853a0d2313c000",
          "blockHash": "0x1247e6324079ec6f4991a20efda8d088a5c03cdc536143f56fbc749c6a9b1579",
          "blockNumber": "0x66ee5b",
          "transactionHash": "0x8fb96b9219e02cce43879459d2eb15ac6adaf56337063d0450430ef06fb88d0d",
          "transactionIndex": "0x55",
          "logIndex": "0x84",
          "removed": false
        },
        {
          "address": "0x08231b0558482946949d9586d4178e30588155e9",
          "topics": [
            "0xddf252ad1be2c89b69c2b068fc378daa952ba7f163c4a11628f55a4df523b3ef",
            "0x0000000000000000000000000000000000000000000000000000000000000000",
            "0x000000000000000000000000eba5864d192954d02fb0da889bd1bd60493d83f6",
            "0x33622e5c4a9b486a61dcadc09919fdc89a03e2ce0efe4aeea06c8013376319c5"
          ],
          "data": "0x",
          "blockHash": "0x1247e6324079ec6f4991a20efda8d088a5c03cdc536143f56fbc749c6a9b1579",
          "blockNumber": "0x66ee5b",
          "transactionHash": "0x8fb96b9219e02cce43879459d2eb15ac6adaf56337063d0450430ef06fb88d0d",
          "transactionIndex": "0x55",
          "logIndex": "0x85",
          "removed": false
        },
        {
          "address": "0x496896ac162ed4bc255c8e0db653a8d77374fb6e",
          "topics": [
            "0x0fba2673863b12c7b8463f3fa2f9b0cb1d534c573cdec5b5d895ee00d6ce6f5e",
            "0x33622e5c4a9b486a61dcadc09919fdc89a03e2ce0efe4aeea06c8013376319c5"
          ],
          "data": "0x00000000000000000000000000000000000000000000006c7638ba1c91d2d96c000000000000000000000000000000000000000000000002b5e3af16b1880000000000000000000000000000000000000000000000000002b5e3af16b188000000000000000000000000000000000000000000000000000000470de4df82000000000000000000000000000000000000000000000000000000000000000000000000000000000000000000000000000000000000000000000000000000000000",
          "blockHash": "0x1247e6324079ec6f4991a20efda8d088a5c03cdc536143f56fbc749c6a9b1579",
          "blockNumber": "0x66ee5b",
          "transactionHash": "0x8fb96b9219e02cce43879459d2eb15ac6adaf56337063d0450430ef06fb88d0d",
          "transactionIndex": "0x55",
          "logIndex": "0x86",
          "removed": false
        },
        {
          "address": "0x496896ac162ed4bc255c8e0db653a8d77374fb6e",
          "topics": [
            "0x962110f281c1213763cd97a546b337b3cbfd25a31ea9723e9d8b7376ba45da1a",
            "0x33622e5c4a9b486a61dcadc09919fdc89a03e2ce0efe4aeea06c8013376319c5"
          ],
          "data": "0x000000000000000000000000000000000000000000000000000000000000000000000000000000000000000000000000000000000000000000470de4df82000000000000000000000000000000000000000000000000000000000000000000000000000000000000000000000000000000000000000000000aa55e90d492d96c00000000000000000000000000000000000000000000006c6b935b8bbd4000000000000000000000000000000000000000000000000000000000000000000000000000000000000000000000000000000000000000000002b5e3af16b1880000",
          "blockHash": "0x1247e6324079ec6f4991a20efda8d088a5c03cdc536143f56fbc749c6a9b1579",
          "blockNumber": "0x66ee5b",
          "transactionHash": "0x8fb96b9219e02cce43879459d2eb15ac6adaf56337063d0450430ef06fb88d0d",
          "transactionIndex": "0x55",
          "logIndex": "0x87",
          "removed": false
        }
      ],
      "logsBloom": "0x00000020000010000000108000000000000000000000000000000010000000000002000000000008000000000000000020000040200000000000000004200000000000001000800000000008000000000010000400000000000000800001000000000000020000000000000000008800000000000000208000001010008000000200000000000000000000000100120020000000000000080000000000000000020002008000002004000042000000000000000400008000000000000000001020000002010000008000000000000000000001100000000000000200000034040010000201000002000000000000000001000002080000000000000000000000",
      "type": "0x2",
      "transactionHash": "0x8fb96b9219e02cce43879459d2eb15ac6adaf56337063d0450430ef06fb88d0d",
      "transactionIndex": "0x55",
      "blockHash": "0x1247e6324079ec6f4991a20efda8d088a5c03cdc536143f56fbc749c6a9b1579",
      "blockNumber": "0x66ee5b",
      "gasUsed": "0xaefd5",
      "effectiveGasPrice": "0x5731c92cb",
      "from": "0xeba5864d192954d02fb0da889bd1bd60493d83f6",
      "to": "0x280837c9be899bd72bebb00e5e517d62cfdf9063",
      "contractAddress": null
    }
  ],
  "libraries": [],
  "pending": [],
  "returns": {},
  "timestamp": 1727102934,
  "chain": 11155111,
  "commit": "11dc5cf"
}